:020000040800F2
:10000000E83E022079020008151B0008C11A00080A
:10001000111B000899090008DF2F000800000000EC
:10002000000000000000000000000000C101000806
:10003000851400080000000015020008D121000806
:10004000930200089302000893020008930200083C
:10005000930200089302000893020008930200082C
:100060008914000893020008930200089302000814
:10007000930200089302000893020008930200080C
:1000800093020008930200089302000893020008FC
:10009000A90A0008930200089302000893020008CE
:1000A00093020008930200089302000893020008DC
:1000B00093020008930200088123000893020008BD
:1000C00093020008930200089302000893020008BC
:1000D000930200083128000893020008A12A0008B2
:1000E000930200089302000893020008930200089C
:1000F000930200089302000893020008930200088C
:10010000930200089302000893020008930200087B
:10011000930200089302000893020008930200086B
:10012000930200089302000893020008930200085B
:10013000930200089302000893020008930200084B
:10014000E90B0008930200089302000893020008DC
:100150009302000893020008930200088D2C000807
:10016000930200089302000893020008930200081B
:10017000930200089302000893020008930200080B
:1001800093020008930200089302000893020008FB
:1001900093020008930200089302000893020008EB
:1001A000000000000000000093020008DFF80CD0FF
:1001B00000F006FB00480047716B0008E83E022093
:1001C0002A4B19680868B0E8F04F80F30988BFF33C
:1001D0006F8F4FF0000080F311887047000000001F
:1001E00006480068006880F3088862B661B6BFF30D
:1001F0004F8FBFF36F8F00DF00BF00BF08ED00E03F
:10020000DFF80C00016841F470010160704700BF25
:1002100088ED00E0EFF30980BFF36F8F134B1A688E
:100220001EF0100F08BF20ED108A20E9F04F10607B
:1002300008B44FF0500080F31188BFF34F8FBFF325
:100240006F8F09F0E7FA4FF0000080F3118808BCC7
:1002500019680868B0E8F04F1EF0100F08BFB0EC46
:10026000108A80F30988BFF36F8F70475C0000200D
:10027000EFF30580704700000648804706480047B6
:10028000FEE7FEE7FEE7FEE7FEE7FEE7FEE7FEE746
:10029000FEE7FEE71D220008AD01000840EA010369
:1002A0009B0703D009E008C9121F08C0042AFAD22C
:1002B00003E011F8013B00F8013B521EF9D27047F0
:1002C000D2B201E000F8012B491EFBD27047002298
:1002D000F6E710B513460A4604461946FFF7F0FF45
:1002E000204610BD2DE9FE4F804681EA0300C00F75
:1002F0000C46009021F0004123F00045B8EB0200CD
:10030000A94105D24046214690461C460B4602466E
:1003100023F00040104347D0270DC7F30A00C3F372
:100320000A510290401A019040286BDAC3F313007F
:1003300040F4801B0098924620B10023D2EB030AC0
:1003400063EB0B0B01985946C0F14002504600F098
:1003500071F906460D4650465946019A00F089F952
:1003600010EB08006141002487EA115284EAE77328
:100370001A4340D0009A62B3019A012A4FEA075209
:1003800015DC001B61EB02014FF0004202EA07524C
:10039000CDE90042001C41F5801132462B4600F0A9
:1003A000C0F903B0BDE8F08F40462146F9E7001BD5
:1003B00061EB0201001C41F5801300185B4120181D
:1003C000A2F5001747EB030140EAD570B6196D415D
:1003D00011E06D084FEA360645EAC0754FEA07524C
:1003E000001B61EB0201001C41F5801149084FEA36
:1003F00030000019514132462B4603B0BDE8F04FA2
:1004000000F080B90098012240000023D0EB0202E6
:1004100063EBE073009821464FEAE074B8EB00000C
:1004200061EB0401E9E783F000435BE781F0004101
:1004300058E72DE9FE4F81EA030404F0004421F05F
:10044000004100944FF0000B23F0004350EA0104F8
:100450005ED052EA03045BD0C3F30A54C1F30A55D9
:100460002C44A4F2F3340194A0FB0254C1F3130111
:1004700041F48011C3F3130343F4801301FB0244DE
:1004800000FB034E840A970A44EA815447EA8357E3
:10049000A4FB076802958D0A05FB07854FEA932C9C
:1004A00004FB0C542705029D4FEA065847EA16370D
:1004B000B5EB08056EEB070C870E920E47EA811725
:1004C00042EA8312A7FB0201B6EB0B0164EB0004C6
:1004D0002B0D43EA0C335E1844EB1C50DA465146B0
:1004E000E7FB0201C5F313044FEA0B3343EA14534D
:1004F0004FEA0432019C43EA0603A4F10C0402947F
:10050000009CCDE900B400F00CF903B0BDE8F08F19
:1005100000200146F9E70EB5C10F80EAE0700844FB
:10052000CA07002140F233438DE80E000A460B460D
:1005300000F0F7F803B000BD70B5C1F30A5201F046
:1005400000450024C1F3130140F2FF3341F4801150
:100550009A4201DA002070BD40F233439A42A2F27F
:10056000334203DC524200F074F800E090402C4328
:10057000F1D0404270BD00F0004230F000400AD09F
:10058000C10D01F56071C0F3160042EA0151C208C5
:1005900040071143704700200146704730B5041EE4
:1005A00071F1000404DB4FF00044404264EB0101B0
:1005B000141E73F1000405DB1C464FF00043524249
:1005C00063EB04038B4208BF824230BD30B5041E8A
:1005D00071F1000404DB4FF00044404264EB010180
:1005E000141E73F1000405DB1C464FF00043524219
:1005F00063EB0403994208BF904230BD01F0004311
:1006000030B421F0004150EA010206D00A0DA2F5F3
:100610006072C1F31301002A02DC30BC0020704775
:10062000440F44EAC104C100E01830BC00EBC250E2
:1006300000F031B8202A04DB203A00FA02F1002051
:1006400070479140C2F1200320FA03F31943904010
:100650007047202A04DB203A21FA02F0002170477B
:1006600021FA02F3D040C2F120029140084319461A
:100670007047202A06DBCB17203A41FA02F043EA02
:10068000E07306E041FA02F3D040C2F1200291404B
:100690000843194670470029A8BF7047401C49000D
:1006A00008BF20F00100704710B4B0FA80FC00FAD7
:1006B0000CF050EA010404BF10BC704749B1CCF102
:1006C000200421FA04F411FA0CF118BF012121438E
:1006D0000843A3EB0C01CB1D4FEA00614FEA102049
:1006E00042BF002010BC704700EBC35010440029EB
:1006F000A4BF10BC7047401C490008BF20F0010097
:1007000010BC704710B5141E73F1000408DA401CC9
:1007100041F1000192185B411A4301D120F0010020
:1007200010BD2DE9F04D92469B4611B1B1FA81F210
:1007300002E0B0FA80F220329046FFF77BFF0446D9
:100740000F4640EA0A0041EA0B0153465A46084365
:1007500013D0114653EA010019D0C8F140025046A7
:10076000FFF777FF05460E46504659464246FFF7CB
:1007700061FF084305D0012004E020463946BDE86A
:10078000F08D0020054346EAE0762C4337430A9873
:100790006305E40AA0EB08000022FD0A44EA47547E
:1007A0000A3002D500200146E9E701051019694128
:1007B000DDE9084500196941BDE8F04DA2E70000F8
:1007C000064C074D06E0E06840F0010394E807009E
:1007D00098471034AC42F6D3FFF7ECFC20AD00088C
:1007E00040AD00082DE9F04D81EA030404F0004B10
:1007F00021F0004514464FF0000A23F0004150EA72
:10080000050220D054EA01021DD0C5F30A57024662
:10081000C5F31303C1F31300C1F30A5640F4801566
:1008200043F48013A7EB0608101BD64608F2FD38E8
:1008300073EB050002D308F1010801E092185B4157
:10084000B8F1000F03DA00200146BDE8F08D00206A
:100850004FF48011064684460EE0171B73EB050724
:1008600005D3121B63EB050306434CEA010C490850
:100870004FEA300092185B4150EA0107EDD152EA8D
:10088000030012D082EA040083EA0501084305D080
:10089000101BAB4106D20122002306E000224FF0DC
:1008A000004302E06FF0010253101AEB06004CEB1C
:1008B000085110EB0A0041EB0B01BDE8F04DFFF7CA
:1008C00021BF0EB540F2334102910021CDE9001164
:1008D0000A460B46FFF725FF03B000BD70B58C1824
:1008E00010F8015B15F0070301D110F8013B2A1144
:1008F00006D110F8012B03E010F8016B01F8016B31
:100900005B1EF9D12B0705D40023521E0DD401F82C
:10091000013BFAE710F8013BCB1A921C03E013F8F5
:10092000015B01F8015B521EF9D5A142D8D300202A
:1009300070BD00002DE9F04104460D46154800F059
:10094000C3FF0746134E00F0DDFE002000F02AFE34
:10095000F32000F021FE00BF0221384600F034FEF3
:100960000928F9D10AE02178304600F0A5FE0928CF
:1009700002D00020BDE8F081761C641C281EA5F181
:100980000105F0D1012000F00DFE00F08BFE0220E9
:10099000F0E7000000001E0800BFFEE72DE9F0416F
:1009A0008AB004460D4617461E46DDF840800121F8
:1009B000082001F035F90121480601F041F9012133
:1009C000480601F04DF900214FF0007001F048F9A0
:1009D0000320089002208DF8240000208DF82600C6
:1009E00001208DF8270003208DF8250008A92C4848
:1009F00000F0F4FE09220021294800F037FF092207
:100A00000121274800F032FF01208DF81B00002053
:100A10008DF81C008DF81A008DF81F008DF81D0050
:100A20008DF81E008DF81640ADF814808DF8187002
:100A30008DF819608DF8175005A91A4800F05DFA75
:100A40000020ADF80C008DF80F0001208DF810008B
:100A50000020ADF80400ADF80600ADF80800ADF8D0
:100A60000A008DF80E0001208DF8110001A800F099
:100A700027F9012202210B4800F036FA14208DF8E4
:100A8000000004208DF8010000208DF802000120F4
:100A90008DF80300684601F03FF80AB0BDE8F08128
:100AA000000C02400064004010B50221084800F02C
:100AB0008BF960B10221064800F0AEF8054A00212A
:100AC000034800F0A4FA0349014801F0EBF910BD16
:100AD00000640040A41A02202DE9F0418AB00446C7
:100AE0000D4617461E46DDF840800121022001F028
:100AF00097F80121880601F0A3F80121880601F08A
:100B0000AFF800214FF0806001F0AAF84FF4405098
:100B1000089002208DF8240000208DF826008DF822
:100B2000270003208DF8250008A92D4800F056FE67
:100B300009220C212A4800F099FE09220D2128489B
:100B400000F094FE01208DF81B0000208DF81C00A1
:100B50008DF81A008DF81F008DF81D008DF81E000D
:100B60008DF81640ADF814808DF818708DF8196066
:100B70008DF8175005A91B4800F0BFF90020ADF80B
:100B80000C008DF80F0001208DF810000020ADF84A
:100B90000400ADF80600ADF80800ADF80A000E201C
:100BA0008DF80E0001208DF8110001A800F088F8E2
:100BB000012202210B4800F097F940208DF8000037
:100BC00004208DF8010000208DF8020001208DF82E
:100BD0000300684600F0A0FF0AB0BDE8F081000005
:100BE000000402400068004010B50221084800F0EF
:100BF000EBF860B10221064800F00EF8054A00212A
:100C0000034800F004FA0349014801F04BF910BD14
:100C100000680040B81A0220B1F5007F3AD00FDC1E
:100C2000202928D006DC01291CD004291DD0082940
:100C300040D11DE0402921D0B1F5807F3AD126E096
:100C4000B1F5004F31D006DCB1F5806F25D0B1F59C
:100C5000006F2FD124E0B1F5803F12D0B1F5003FF5
:100C600028D111E0154A826025E00822C26022E006
:100C70001022C2601FE0082202611CE01022026103
:100C800019E00822426016E01022426013E00422BC
:100C9000426010E0042242600DE0042242600AE05B
:100CA000002282610422426005E000228261042267
:100CB000426000E000BF00BF70470000010101007A
:100CC00010B50021837A012202FA03F13D4A12682D
:100CD00042F001023B4B1A603A4A1C3212688A43C6
:100CE000384B1C331A60027BCAB9364A0C32126880
:100CF0008A43344B0C331A604288C38842EA034368
:100D0000304A4032847A42F834300288838842EA9A
:100D100003432C4A4032847A02EBC4025360027BC4
:100D2000012A19D1274A0C3212680A43254B0C3389
:100D30001A604288038842EA0343224A4032847A96
:100D400042F83430C288838842EA03431D4A403265
:100D5000847A02EBC4025360C27A3AB9194A121D6E
:100D600012688A43174B1B1D1A6006E0154A121DB4
:100D700012680A43134B1B1D1A60028932B9114ACB
:100D8000143212688A430F4B14331A600289012A05
:100D900006D10C4A143212680A430A4B14331A6003
:100DA000427B012A06D1074A1C3212680A43054BCE
:100DB0001C331A60034A126822F00102014B1A60C8
:100DC00010BD00000066004070B504460D460026C8
:100DD00060692840002871D0B5F5807F5CD010DCB8
:100DE000082D35D006DC012D20D0022D24D0042D75
:100DF00072D127E0102D31D0202D35D0402D6BD170
:100E000038E0B5F5004F60D009DCB5F5007F49D07A
:100E1000B5F5806F4CD0B5F5006F5DD14FE0B5F5FD
:100E2000803F2DD0B5F5003F56D12FE0A0682D4969
:100E300000F0F8F9064651E0E068032100F0F2F90D
:100E400006464BE0E068082100F0ECF9064645E074
:100E5000E068102100F0E6F906463FE02069032132
:100E600000F0E0F9064639E02069082100F0DAF9DF
:100E7000064633E02069102100F0D4F906462DE043
:100E80006068082100F0CEF9064627E0606810216E
:100E900000F0C8F9064621E0A069012100F0C2F97E
:100EA00006461BE0A069022100F0BCF9064615E0E9
:100EB000A069042100F0B6F906460FE00FE0A06932
:100EC000702100F0AFF9064608E06068042100F0E8
:100ED000A9F9064602E0FFE7002600BF00E0002671
:100EE000304670BD010101001AB143690B434361F3
:100EF00002E043698B434361704730B502460020EE
:100F00000023146824F002041460146844F00104FF
:100F1000146000E05B1C546804F001041CB94FF637
:100F2000FF74A342F6D1546804F001040CB9002008
:100F30006CE08C79012C04D1146844F080041460B6
:100F400003E0146824F080041460CC79012C04D1EF
:100F5000146844F04004146003E0146824F0400472
:100F600014600C7A012C04D1146844F0200414603D
:100F700003E0146824F0200414604C7A012C04D19E
:100F8000146844F01004146003E0146824F01004A2
:100F900014608C7A012C04D1146844F008041460A5
:100FA00003E0146824F008041460CC7A012C04D106
:100FB000146844F00404146003E0146824F004048A
:100FC00014608C78A407CD7844EA05640D7944EA6E
:100FD00005444D7944EA05540D886D1E2C43D461B7
:100FE000146824F001041460002300E05B1C5468C2
:100FF00004F001041CB14FF6FF74A342F6D154680B
:1010000004F001040CB1002000E0012030BD10B557
:1010100000F5D87303EB01131B6803F0040313728C
:10102000137A53B900F5D87303EB01131B6840F230
:10103000FF7404EA5353136009E000F5D87303EB1F
:1010400001131B686FF0604404EAD303536000F59A
:10105000D87303EB01131B6803F00203537200F50E
:10106000D87303EB01135B6803F00F03937200F571
:10107000D87303EB01135B681B0AD37400F5D873B4
:1010800003EB01139B68D37200F5D87303EB0113D4
:101090009B681C0A147300F5D87303EB01139B685B
:1010A0001C0C547300F5D87303EB01139B681B0EE3
:1010B000937300F5D87303EB0113DB68D37300F56A
:1010C000D87303EB0113DB681C0A147400F5D873A2
:1010D00003EB0113DB681C0C547400F5D87303EBAD
:1010E0000113DB681B0E937421B9C36843F020031E
:1010F000C36003E0036943F02003036110BD10B532
:1011000002460020936803F08063B3F1806F00D142
:1011100010E0936803F00063B3F1006F01D1012088
:1011200008E0936803F08053B3F1805F01D102209F
:1011300000E00420042874D002F5C07303EB001310
:101140001B6803F0010402F5C07303EB00131C607D
:101150000B7A7BB94B7A0C8843EA445302F5C0748E
:1011600004EB00142468234302F5C07404EB00145C
:10117000236010E00B7A4C6843EAC4034C7A2343A3
:1011800002F5C07404EB00142468234302F5C07414
:1011900004EB001423608B7A03F00F038B7202F5CB
:1011A000C07303EB00135B6823F00F0402F5C073F8
:1011B00003EB00135C6002F5C07303EB00135B6884
:1011C0008C7A234302F5C07404EB001463608B7BBC
:1011D0001C064B7B44EA03440B7B44EA0323CC7A92
:1011E000234302F5C07404EB0014A3608B7C1C063F
:1011F0004B7C44EA03440B7C44EA0323CC7B23432B
:1012000002F5C07404EB0014E36002F5C07303EB55
:1012100000131B6843F0010402F5C07303EB0013D5
:101220001C6010BD0246002002EA01030BB1012040
:1012300000E00020704700000246094B9A4201D2AC
:10124000084801E00648103801F000531BB1064B76
:101250000B40C36002E0044B0B408360704700000A
:1012600010640240006002407D0F7D0F21B10268D2
:1012700042F00102026003E0026822F00102026013
:1012800070470000016821F0010101600021016048
:1012900041608160C1600161212141614A49884208
:1012A00004D13D21484A103A91608CE046491831FA
:1012B000884205D14FF47461434A103A916082E04C
:1012C00041493031884205D14FF474113E4A103AF9
:1012D000916078E03C494831884205D14FF0746113
:1012E000394A103A91606EE037496031884204D142
:1012F0003649354A103AD16065E033497831884241
:1013000004D13349304A103AD1605CE02E49903123
:10131000884204D12F492C4A103AD16053E02A491F
:10132000A831884205D14FF03D51274A103AD1608B
:1013300049E02949884204D13D21274A083A1160F1
:1013400041E025491831884205D14FF47461224AA1
:10135000083A116037E020493031884205D14FF416
:1013600074111D4A083A11602DE01B49483188422A
:1013700005D14FF07461184A083A116023E016490C
:101380006031884204D11149134A121F11601AE0DA
:1013900011497831884204D10D490F4A121F11605A
:1013A00011E00D499031884204D10A490A4A121FBE
:1013B000116008E00849A831884204D14FF03D513E
:1013C000054A121F11607047106002403D00002066
:1013D000400F002000003D201064024021B102684F
:1013E00042F48022026003E0026822F4802202605C
:1013F000704722B1036843F40023036003E00368ED
:1014000023F400230360016170470146486880B2FD
:101410007047014600200A6802F400220AB1012048
:1014200000E000207047000010B500220268134B56
:101430001A40CC680B6823434C6923438C692343CF
:10144000CC6923430C6A23434C6A23438C6A2343AD
:101450004C6B23438C6B23431A430260426922F096
:101460000702D1E90B3423431A4342610B694360FD
:101470004B6883608B68C36010BD00003F801CF028
:10148000416070477047000010B5042000F02EF84E
:10149000012817D10A2003F0DBFA04210B4800F0E1
:1014A00008FA01280ED10A4800880A4908600A484B
:1014B00000884860012008720C210648FFF73AFABC
:1014C00006490870042000F00BF810BD000402402B
:1014D000F81B0220F41C0220BC1B0220DC000020B0
:1014E0000149086070470000143C0140014600209B
:1014F000034A12680A400AB1012000E00020704748
:10150000143C0140002123498279002A3AD00A463E
:10151000126803689A430B461A600A1D1268036832
:101520009A430B1D1A60027911440A6803681A4332
:101530000A60184A0832126803689A43154B083348
:101540001A601A1D126803689A43124B0C331A6012
:101550004279102A0ED11A1F126803681A430D4BE4
:1015600008331A601A1D126803681A43094B0C33BA
:101570001A600DE00749427911440A6803681A436A
:101580000A6005E0027911440A6803689A430A6018
:1015900070470000003C01400149086070470000AE
:1015A0000C3C024030B10749096841F48061054AAA
:1015B000116005E00349096821F48061014A116066
:1015C00070470000003C024070B504460A46002601
:1015D000092502B909E0012A01D1160205E0022A13
:1015E00001D1160201E04FF4407600F09DF8054667
:1015F000092D28D11548006820F44070134908606F
:1016000008460068304308600846006820F0F8008B
:1016100008600846006844F0020108430B4908606E
:101620000846006840F48030086000F07DF8054608
:101630000648006820F00200044908600846006877
:1016400020F0F8000860284670BD0000103C024001
:1016500009201349096801F48031B1F5803F01D1B7
:1016600001201CE00E49096801F0100109B10620B3
:1016700015E00B49096801F4807109B102200EE000
:101680000749096801F0E00109B1072007E00449B2
:10169000096801F0020109B1082000E00920704743
:1016A0000C3C02400348006840F0004001490860DB
:1016B00070470000103C024030B502460C46092538
:1016C00000F032F80546092D17D10D48006820F4C6
:1016D00040700B49086008460068086008460068CA
:1016E00040F001000860147000F01EF80546044840
:1016F000006820F0010002490860284630BD000063
:10170000103C02400548006800F0004028B1044841
:1017100002490C390860034808607047103C0240D9
:1017200023016745AB89EFCD08B509200090FFF78D
:101730008FFF009002E0FFF78BFF00909DF8000004
:101740000128F8D09DF8000008BD00001CB501215B
:10175000022000F065FA0121202000F061FA012149
:10176000402000F05DFA4FF4FF70009001208DF8EA
:1017700004008DF8070000208DF806008DF80500A4
:101780006946134800F02AF84FF4FF71104800F042
:1017900099F84020009001208DF8040000208DF879
:1017A00007008DF806008DF805006946094800F02D
:1017B00015F80420009000208DF804008DF8070033
:1017C0006946054800F00AF800F07CF91CBD0000ED
:1017D000001802400014024000040240F0B50A461E
:1017E00000210023002400BF3DE0012505FA01F39C
:1017F000156805EA03049C4234D105684F000326AE
:10180000BE40B543056015794E00B54006683543C6
:1018100005601579012D02D01579022D16D1856844
:101820004F000326BE40B543856055794E00B54054
:10183000866835438560456801268E40B54345601E
:10184000456896798E40B6B235434560C5684F000D
:101850000326BE40B543C560D5794E00B540C66885
:101860003543C560491C1029BFD3F0BDF0B5002336
:1018700000244D07ED0E02FA05F3CE1000F120050D
:1018800055F826504E07F70E0F26BE40B543CF1031
:1018900000F1200646F82750CE1000F1200555F83B
:1018A000265045EA0304CE1000F1200545F82640F5
:1018B000F0BD0246002013690B400BB1012000E08F
:1018C0000020704701837047014600205C4A914226
:1018D00003D2B1F1006F00D3B0E05A4A914204D272
:1018E000574A914201D30820A8E0574A914204D2B6
:1018F000544A914201D31020A0E0544A914204D2AC
:10190000514A914201D3182098E0514A914204D2A1
:101910004E4A914201D3202090E04E4A914204D297
:101920004B4A914201D3282088E04B4A914204D28D
:10193000484A914201D3302080E0484A914204D283
:10194000454A914201D3382078E0454A914204D279
:10195000424A914201D3402070E0424A914204D26F
:101960003F4A914201D3482068E03F4A914204D265
:101970003C4A914201D3502060E0B1F1016F04D2A2
:10198000394A914201D3582058E0384A914204D252
:10199000B1F1016F01D3802050E0354A914204D269
:1019A000324A914201D3882048E0324A914204D21F
:1019B0002F4A914201D3902040E02F4A914204D215
:1019C0002C4A914201D3982038E02C4A914204D20B
:1019D000294A914201D3A02030E0294A914204D201
:1019E000264A914201D3A82028E0264A914204D2F7
:1019F000234A914201D3B02020E0234A914204D2ED
:101A0000204A914201D3B82018E0204A914204D2E2
:101A10001D4A914201D3C02010E01D4A914204D2D8
:101A20001A4A914201D3C82008E01A4A914204D2CE
:101A3000174A914201D3D02000E0D820704700001F
:101A4000004000080080000800C0000800000108F5
:101A50000000020800000408000006080000080852
:101A600000000A0800000C0800000E0800401008E2
:101A70000080100800C010080000110800001208C3
:101A800000001408000016080000180800001A08DA
:101A900000001C0800001E08014800687047000094
:101AA0004800002005480068401C044908600846BA
:101AB0000068401C08B900200860704748000020FA
:101AC00000BFFEE70EB50121880300F0D9F802211E
:101AD000012000F0B9FA08208DF8080002208DF8E6
:101AE00009008DF80A0001208DF80B0002A800F013
:101AF00013F80420009000208DF8040008208DF8D1
:101B0000050001208DF806006846FFF7FBFC0EBDBE
:101B100000BFFEE77047000070B5002100230F22D0
:101B2000C4781CB3174C246804F4E064C4F5E06482
:101B3000C4F30721C1F10404E3B20A4144789C4094
:101B4000E1B28478144021430C07210E0E4C057835
:101B50006155047804F01F050124AC4005786D112F
:101B6000AD0005F1E025C5F8004109E0047804F076
:101B70001F050124AC40054D0678761145F8264036
:101B800070BD00000CED00E000E400E080E100E04A
:101B900002490143024A1160704700000000FA0543
:101BA0000CED00E02DE9F0412DED048B0446B0EE84
:101BB000408AF0EE608AB0EE419A0E4617461D4606
:101BC000C5B91548E063154820643A463146B0EE81
:101BD000491AF0EE680AB0EE480A2046E36B9847CF
:101BE000B0EE491AF0EE680AB0EE480A2046216CC1
:101BF00088470CE00848E0633A463146B0EE491A9F
:101C0000F0EE680AB0EE480A2046E36B9847BDEC58
:101C1000048BBDE8F08100009D750008B9750008CF
:101C200029B1064A12680243044B1A6004E0034AD1
:101C300012688243014B1A6070470000303802403E
:101C400029B1064A12680243044B1A6004E0034AB1
:101C500012688243014B1A6070470000403802400E
:101C600029B1064A12680243044B1A6004E0034A91
:101C700012688243014B1A6070470000203802400E
:101C800029B1064A12680243044B1A6004E0034A71
:101C900012688243014B1A607047000044380240CA
:101CA00029B1064A12680243044B1A6004E0034A51
:101CB00012688243014B1A607047000024380240CA
:101CC000F0B5002100220024022500260223324F15
:101CD0003F6807F00C0121B1042905D0082937D14C
:101CE00005E02E4F076036E02D4F076033E02A4FA6
:101CF0003F1F3F68C7F38056274F3F1F3F6807F0DD
:101D00003F036EB1264FB7FBF3F7DFF88CC0ACF1A1
:101D1000040CDCF800C0CCF3881C07FB0CF40CE0CE
:101D20001E4FB7FBF3F7DFF870C0ACF1040CDCF822
:101D300000C0CCF3881C07FB0CF4174F3F1F3F6813
:101D4000C7F301477F1C7D00B4FBF5F7076002E095
:101D5000124F076000BF00BF0F4F3F6807F0F00150
:101D60000909104F7A5C0768D74047600A4F3F68FF
:101D700007F4E051890A0B4F7A5C4768D7408760C7
:101D8000054F3F6807F46041490B064F7A5C47688E
:101D9000D740C760F0BD0000083802400024F400BE
:101DA000001BB7004C00002021B1028842F0400225
:101DB000028004E002884FF6BF731A400280704729
:101DC00000B587B001212020FFF72AFF0121080577
:101DD000FFF756FF052207212148FFF747FD05229F
:101DE00008211F48FFF742FD052209211C48FFF783
:101DF0003DFD4FF46070059002208DF8180003201F
:101E00008DF8190000208DF81A008DF81B0005A927
:101E10001348FFF7E3FC0020ADF800004FF4827098
:101E2000ADF802000020ADF80400ADF80600ADF8F2
:101E300008004FF40070ADF80A001820ADF80C004F
:101E40000020ADF80E000A20ADF8100069460548E4
:101E500000F00AF801210348FFF7A6FF07B000BD14
:101E6000001402400050014010B50022028802F424
:101E700041520B884C8823438C882343CC882343CE
:101E80000C8923434C8923438C892343CC892343E6
:101E90001A430280838B4FF2FF74234083830B8AA3
:101EA000038210BD70B505460C465C4885426FD173
:101EB0002068A0F20120072867D2DFE800F00405BF
:101EC00006074149510000BF00BF00BF2078401EF7
:101ED0005349087008460078C0EB0010514901EBE7
:101EE000800081694E480078C0EB00104D4A02EB3B
:101EF00080008069401C4A4A1278C2EB0212494BAA
:101F000003EB8202906132290AD845490978C1EB76
:101F100001111A4602EB8100214603F041FE09E05F
:101F20003F490978C1EB01113E4A02EB810021468D
:101F300002F02EFF3A490978481C02F08BFF25E099
:101F40002146394802F024FF052002F083FF1DE0FE
:101F50002146364802F01CFF062002F07BFF15E008
:101F6000334881698069401C314A9061322904D824
:101F70002146104603F014FE03E021462C4802F0EF
:101F800007FF072002F066FF00E000BF44E0FFE724
:101F90002068A0F20140E0BB2649002004E00A5C72
:101FA000254B1B681A54401C0428F8DB234890ED8D
:101FB000000A234880ED0C0A1E480B38C27B007CC7
:101FC00042EA002000B200EE100AB8EEC00A1C4837
:101FD00080ED0D0A90ED0D0ADFED1A0A80EE201A51
:101FE00080ED0D1A13480B38427C807C42EA0020B9
:101FF00000B200EE100AB8EEC00A114880ED0E0AD9
:1020000090ED0E0ADFED0F0A80EE201A80ED0E1A19
:1020100001E0FFE700BF00BF70BD000000640040AA
:10202000F4000020CC1A0220F81B0220BC1B022066
:10203000341C0220C31A0220E4000020E00000202B
:10204000681E02206F12834130B500228B071C0FDF
:102050000F2303FA04F20B4B8C1053F824309343F4
:10206000084C8D1044F8253023468C1053F824304A
:102070008C07240F00FA04F42343024C8D1044F81B
:10208000253030BD083801400CB50020019000908B
:102090004148006840F480303F49086000BF3E4836
:1020A000006800F4003000900198401C01900098F6
:1020B00018B90198B0F5A04FF1D13748006800F485
:1020C000003010B10120009001E000200090009845
:1020D000012860D130484030006840F080502E49DF
:1020E000403108602D48006840F440402B490860AA
:1020F0002948083000682849083108600846006807
:1021000040F4004008600846006840F4A0500860B1
:102110002348091F0860081F006840F08070091FED
:10212000086000BF1C48006800F000700028F9D06B
:102130001A48006840F480301849086000BF17480A
:10214000406800F480300028F9D01448006840F45A
:1021500000301249086000BF1048406800F40030A9
:102160000028F9D040F205700E4908600A4808308E
:10217000006820F00300084908310860084600683C
:1021800040F00200086000BF03480830006800F01B
:102190000C000828F8D10CBD003802400070004047
:1021A000062D4008003C0240042808D14FF0E021F1
:1021B000096941F004014FF0E022116107E04FF09E
:1021C000E021096921F004014FF0E022116170471C
:1021D00010B508F0DFF8012801D007F053FC10BD5E
:1021E00010B504466FF00400FFF7DEFFE11704EBC3
:1021F0005171C1F3C701074A11701046007800EB16
:102200004001C1EBC0104FF6FF7101EAC000024966
:10221000088010BDD8000020DA00002010B5154855
:10222000006840F47000134908601348006840F0EB
:1022300001001149086000200F49083108600E486C
:1022400000680E4908400C4908600D48091D0860E7
:10225000081F006820F48020091F0860002006493C
:102260000C310860FFF710FF4FF000600149803922
:10227000086010BD88ED00E000380240FFFFF6FE68
:10228000103000241CB50548022100238022CDE92E
:10229000001003A1054807F029FF1CBD1400002011
:1022A00073746172745F7461736B00002D8C00082D
:1022B00030B58BB005460C4601210846FFF7B0FC4F
:1022C00001211020FFF7ACFC01210846FFF7D8FCE4
:1022D000012208212748FFF7C9FA4FF480700990BE
:1022E00002208DF8280001208DF82B0000208DF8A9
:1022F0002A0003208DF8290009A91E48FFF76EFA6D
:102300004FF48040099009A91B48FFF767FA079529
:10231000A0B2ADF818000020ADF82000ADF81A000A
:1023200006A9164800F088F96020ADF804000020E6
:10233000ADF810000120ADF806004FF47A7003905C
:1023400001A90E4800F0E6F801A90C4800F02AF9AE
:1023500008210A4800F01CF90821084800F05EF93D
:102360000121064800F06EF80121044800F0ABF8A6
:102370000BB030BD000002400010024000000140E0
:1023800010B50121054800F0AAF808B1FFF78AFB53
:102390000121024800F094F810BD00000008004040
:1023A00030B58BB005460C4601210802FFF738FC1A
:1023B00001210820FFF744FC022200211F48FFF7FB
:1023C00055FA0120099002208DF8280001208DF88F
:1023D0002B0000208DF82A0003208DF8290009A980
:1023E0001648FFF7FBF90795A0B2ADF818000020DA
:1023F000ADF82000ADF81A0006A9114800F01CF94C
:102400006020ADF804000020ADF810000120ADF808
:1024100006004FF47A70039001A9094800F0C2F851
:102420000821074800F0FAF80121054800F00AF8F1
:102430000121034800F047F80BB030BD00200240F6
:10244000000C004021B1028842F08002028004E0CA
:1024500002884FF67F731A40028070477FB50546A9
:102460000C4601210420FFF7EBFB0295ADF8044078
:102470000020ADF80C00ADF8060001A90F4800F0EF
:10248000DBF8012211460D4800F03AF801210B4813
:1024900000F016F81E208DF8000000208DF80100D5
:1024A0008DF8020001208DF803006846FFF734FB29
:1024B0000121024800F007F87FBD0000000800403D
:1024C000CA430282704721B1028842F001020280B1
:1024D00004E002884FF6FE731A400280704730B560
:1024E0000246002000230024158A05EA010395898D
:1024F00005EA010413B10CB1012000E0002030BD59
:102500001AB183890B43838102E083898B438381E2
:102510007047000070B5002400220023058C4FF6A0
:10252000FE7635400584028C8388048B4FF68F75C8
:102530002C40B51E2C400D882C43751E2A408D89D9
:102540002A434D882A43104DA84202D00F4DA8427D
:1025500013D14FF6F7752A40CD892A434FF6FB7504
:102560002A408D882A434FF6FF652B404FF6FF55D2
:102570002B400D8A2B434D8A2B43838004838D6827
:102580004563028470BD000000000140000401406A
:102590000A460021018B4FF6F7731940114301835E
:1025A0007047000070B5002200230024058C4EF611
:1025B000FF7635400584038C8488828B48F6FF754E
:1025C0002A404FF6FF452A400D884FF6FF7606EA6F
:1025D00005252A434DF6FF752B408D8906EA053502
:1025E0002B434D8806EA05352B430A4DA84202D0FD
:1025F000094DA84208D14BF6FF752C400D8A4FF6C5
:10260000FF7606EA85152C43848082838D680564F5
:10261000038470BD00000140000401400A4600210F
:10262000818B4FF2FF7319404FF6FF7303EA0223C9
:10263000194381837047000000220288184B98429A
:102640000ED0184B98420BD0B0F1804F08D0164BEB
:10265000984205D0154B984202D0154B984204D1B0
:102660004FF68F731A404B881A43124B984207D08B
:10267000114B984204D04FF6FF431A400B891A437E
:1026800002804B68C3620B880385054B984202D0D9
:10269000044B984201D18B7A0386012383827047D1
:1026A0000000014000040140000400400008004018
:1026B000000C0040001000400014004000B587B03E
:1026C00001210220FFF7ACFA01211020FFF7D8FA10
:1026D00001211020FFF7E4FA00211020FFF7E0FAB3
:1026E000072211462848FFF7C1F8802005900220F4
:1026F0008DF8180000208DF81A0001208DF81B00BD
:1027000003208DF8190005A91F48FFF767F81F4837
:1027100000F022FB1E4801900020ADF80800ADF843
:102720000A004FF48060ADF80C000420ADF80E00F4
:102730000020ADF8100001A9144800F0E1FB0121D0
:10274000124800F0F3FA1021104800F0D7FA1021D7
:102750000E4800F0DCFA012240F224410B4800F060
:10276000AAFB25208DF8000005208DF8010000202F
:102770008DF8020001208DF803006846FFF7CCF9C0
:1027800000F008F807B000BD00040240001001404E
:10279000A086010000B58FB001218805FFF740FA3F
:1027A000012240211F4800F0CDFA1F48FEF76AFDC4
:1027B0004FF0006000901B48001D01901B480290E4
:1027C0000020039024200490002005904FF48060A6
:1027D00006900020079008904FF4807009904FF405
:1027E00040300A9000200B9003200C9000200D90A8
:1027F0000E9069460C48FEF717FE00220B49243163
:102800000948FEF7F6FD01210748FEF7E7FD002124
:102810000548FEF72BFD01210348FEF727FD0FB009
:1028200000BD000000100140406402400A0A02207E
:1028300010B51021364800F007FB002867D040F2A1
:102840002441334800F00DFB002860D0304800F0F0
:10285000C1FB3048FEF7DDFD40BB00212D48FEF7EF
:1028600005FD2C48FEF7D1FDC0F124002A4908805F
:1028700008460088242806D12849294805F04AFD41
:102880000A2002F0E7FA24212248FEF7F9FD214848
:10289000006840F400201F49086022491D48FEF7E7
:1028A000CBFC01211B48FEF7E1FC28E0012119487F
:1028B000FEF7DCFC1C48FEF7A8FDC0F12400164919
:1028C000088008460088242807D114492431144878
:1028D00005F020FD0A2002F0BDFA24210D48FEF784
:1028E000CFFD0C48006820F400200A4908600D491B
:1028F0000848FEF7A1FC01210648FEF7B7FC1021AD
:10290000034800F0FBF91021014800F000FA10BD67
:102910000010014040640240DE0000200A0A02204C
:10292000F4090220000030104060024000B587B07A
:1029300001210820FFF774F901218804FFF780F9CD
:1029400001218804FFF78CF900214FF48020FFF764
:1029500087F9072208212948FEF788FF0722092165
:102960002648FEF783FF4FF44070059002208DF853
:10297000180000208DF81A008DF81B0003208DF838
:10298000190005A91D48FEF729FF1D4800F0E4F9CC
:102990004FF4E13001900020ADF80800ADF80A00D6
:1029A000ADF80C000C20ADF80E000020ADF81000C2
:1029B00001A9134800F0A4FA1021114800F09EF973
:1029C000012240F224410E4800F075FA01210C4822
:1029D00000F0ACF927208DF8000005208DF80100EB
:1029E00000208DF8020001208DF803006846FFF7F3
:1029F00093F800F007F807B000BD0000000C02409B
:102A00000048004000B58FB001214805FFF708F9E4
:102A1000012240211E4800F095F91E48FEF732FCC5
:102A20004FF0006000901A48001D01901A48029073
:102A3000002003904FF480600490002005904FF434
:102A40008060069000200790089009904FF4403075
:102A50000A9000200B9003200C9000200D900E9007
:102A600069460C48FEF7E0FC00220C490948FEF7D5
:102A7000C0FC01210748FEF7B1FC00210548FEF724
:102A8000F5FB01210348FEF7F1FB0FB000BD00008C
:102A90000048004028600240760A0220760E02209C
:102AA0001CB5002001901021164800F0CDF938B374
:102AB00040F22441134800F0D4F908B3114800F063
:102AC00089FA10210F4800F019F90B2002F0C2F921
:102AD0000D480068A0B101A8002301220221009046
:102AE0000948006807F0B4FB019848B1019838B173
:102AF0004FF0805005490860BFF34F8FBFF36F8FD1
:102B00001CBD0000004800403C00002004ED00E037
:102B100000B587B001214020FFF782F80121202075
:102B2000FFF7AEF801218805FFF77AF80121202090
:102B3000FFF7B6F800212020FFF7B2F8082209219C
:102B40002948FEF793FE08220E212748FEF78EFE45
:102B50004FF48440059002208DF8180000208DF875
:102B60001A0001208DF81B0003208DF8190005A91B
:102B70001D48FEF733FE1D4800F0EEF84FF4E1303B
:102B800001900020ADF80800ADF80A00ADF80C0087
:102B90000C20ADF80E000020ADF8100001A913487C
:102BA00000F0AEF91021114800F0A8F8012240F21F
:102BB00024410E4800F07FF901210C4800F0B6F8DE
:102BC00047208DF8000005208DF8010000208DF8C9
:102BD000020001208DF803006846FEF79DFF00F01B
:102BE00007F807B000BD00000018024000140140C3
:102BF00000B58FB001218805FFF712F801224021AE
:102C00001E4800F09FF81E48FEF73CFB4FF0206086
:102C100000901A48001D01901A480290002003906D
:102C20004FF480600490002005904FF4806006907F
:102C300000200790089009904FF440300A9000203F
:102C40000B9003200C9000200D900E9069460C48CC
:102C5000FEF7EAFB00220C490948FEF7CAFB0121F6
:102C60000748FEF7BBFB00210548FEF7FFFA0121EC
:102C70000348FEF7FBFA0FB000BD0000001401404E
:102C80002864024076120220761602201CB500202D
:102C900001901021164800F0D7F838B340F22441D3
:102CA000134800F0DEF808B3114800F093F9102142
:102CB0000F4800F023F80C2002F0CCF80D48006813
:102CC000A0B101A800230122082100900948006852
:102CD00007F0BEFA019848B1019838B14FF0805022
:102CE00005490860BFF34F8FBFF36F8F1CBD000015
:102CF000001401404400002004ED00E001F40072E3
:102D0000B2F5007F00D100BFCA430280704710B502
:102D10000022002340F66A14A14200D100BF0A122B
:102D200001249440A3B2DC43048010BD21B1828908
:102D300042F40052828104E082894DF6FF731A400A
:102D4000828170471AB1838A0B43838202E0838AAF
:102D50008B4383827047000010B50446324884429A
:102D600008D101211020FEF79BFF00211020FEF763
:102D700097FF57E02D48844209D101214804FEF70E
:102D80006FFF00214FF40030FEF76AFF4AE0284849
:102D9000844209D101218804FEF762FF00214FF42B
:102DA0008020FEF75DFF3DE02248844209D10121E9
:102DB000C804FEF755FF00214FF40020FEF750FF36
:102DC00030E01D48844209D101210805FEF748FF83
:102DD00000214FF48010FEF743FF23E017488442A0
:102DE00008D101212020FEF75BFF00212020FEF703
:102DF00057FF17E01248844209D101218807FEF7E6
:102E00002FFF00214FF08040FEF72AFF0AE00D4817
:102E1000844207D101214005FEF722FF0021600511
:102E2000FEF71EFF10BD00000010014000440040EE
:102E300000480040004C0040005000400014014099
:102E400000780040007C004002460020B1F5007F81
:102E500000D100BF13880B400BB1012000E000201F
:102E6000704770B50246002400230025002040F67C
:102E70006A16B14200D100BFC1F3421501F01F0331
:102E8000012606FA03F3012D02D19689334006E0AC
:102E9000022D02D1168A334001E0968A33400C128B
:102EA000012606FA04F41688344013B10CB101204F
:102EB00000E0002070BDF0B5034600240026002588
:102EC000002040F66A17B94200D100BF1846C1F38E
:102ED000421401F01F06012707FA06F5012C01D163
:102EE0000C3004E0022C01D1103000E014301AB193
:102EF00007682F43076002E00768AF430760F0BD33
:102F00002DE9FF4705460E460024A14600BFA04616
:102F1000B08900B100BF2C8A24F44054F0880443E7
:102F20002C82AC8941F20C608443B088318908431B
:102F3000718908430443AC81AC8A24F44074B0899D
:102F40000443AC826846FEF7BBFE2048854202D0AF
:102F50001F48854202D1DDF80C9001E0DDF80890B1
:102F6000A88900F4004040B109EBC90000EB09104A
:102F700031684900B0FBF1F707E009EBC90000EB4D
:102F8000091031688900B0FBF1F76420B7FBF0F05D
:102F900004012009642101FB1078A88900F4004095
:102FA00040B1322000EBC800B0FBF1F000F00700A8
:102FB000044308E0322000EB08106421B0FBF1F07C
:102FC00000F00F0004432C81BDE8FF870010014092
:102FD0000014014001468888C0F30800704700BF14
:102FE000FEE703B401984100009850EAC12018BFE1
:102FF00004204A0D18BF40F0010040F2FF72B2EB0E
:10300000515F08BF40F00200012808BF052002B050
:10301000704700000000000010B52F499FED2C1BE9
:103020002DED020B84B0059820F000408842D8BFF7
:103030009DED040B2DDD2949884209D1049840B942
:103040004FF0010000F0E0FC00F0AEFC06B010BD57
:1030500005DB9DED040B00F09BFC06B010BD68463F
:103060009DED040B00F0ACF810F0030004BF9DEDE3
:10307000021B9DED000B0CD001280ED09DED021B14
:103080009DED000B022817D0012000F0E9FB06B0EF
:1030900010BD00F0B1FA06B010BD9DED021B9DED14
:1030A000000B012000F0DCFB51EC100B81F0004123
:1030B00006B041EC100B10BD00F09EFA51EC100B65
:1030C00081F0004106B041EC100B10BD0000000083
:1030D0000000000000000000FB21E93F0000F07F3D
:1030E0002DED020B019820F0004001909DED000BAA
:1030F00002B070470000000010B52F499FED2C1B57
:103100002DED020B84B0059820F000408842DCBF12
:1031100000209DED040B32DD2849884209D1049836
:1031200040B94FF0010000F06FFC00F03DFC06B02C
:1031300010BD05DB9DED040B00F02AFC06B010BDB0
:1031400068469DED040B00F03BF810F0030011D031
:10315000012818D09DED021B9DED000B02281AD00E
:1031600000F04AFA51EC100B81F0004106B041EC3E
:10317000100B10BD9DED021B9DED000B012000F01A
:103180006FFB06B010BD9DED021B9DED000B00F026
:1031900033FA06B010BD012000F062FB51EC100BB9
:1031A00081F0004106B041EC100B10BD00000000A2
:1031B0000000000000000000FB21E93F0000F07F5C
:1031C0002DE9F14F04462DED020B2DED088B8AB051
:1031D0009FEDE70B80ED020B139EE74826F00045BC
:1031E00085420ADC9DED120B002084ED000B0AB035
:1031F000BDEC088B03B0BDE8F08FE0489FEDE0AB7D
:103200009FEDE1BBA84247DDE14F9FEDE39B9FEDC2
:10321000E48B9DED120B53EC1A2B51EC100B002E8E
:103220001CDDFDF700F941EC100BBD4208D053EC5A
:103230001B2B51EC100BFDF7F6F8C4E900010BE075
:1032400053EC192B51EC100BFDF7EDF853EC182B48
:10325000FDF7E9F8C4E900010120C8E7FDF742F8ED
:1032600041EC100BBD4208D053EC1B2B51EC100B62
:10327000FDF738F8C4E900010BE053EC192B51ECD1
:10328000100BFDF72FF853EC182BFDF72BF8C4E9C2
:1032900000014FF0FF30AAE7C348A84279DB9DED5B
:1032A000120B51EC100B01F0E1FD41EC180B9FEDFE
:1032B000C00B53EC102BFDF7BCF89FEDBF1B53EC7C
:1032C000112BFDF70FF8FDF737F90746FDF723F946
:1032D00041EC190B53EC1A2BFDF7ABF853EC182B00
:1032E000FDF7A4F841EC180B53EC1B2B51EC190B18
:1032F000FDF79FF8DFF8C8A241EC100B4FEA155814
:103300000125FA4453EC102B51EC180BFDF78BF808
:10331000032DC4E900013DD0C1F30A5005EB45116E
:10332000A8EB00001139814234DA0AEB051BB0EE3C
:1033300048AA9BED000BF0EE68AA53EC102B51EC61
:10334000190BFDF776F841EC1B0B51EC1A0B53EC03
:103350001B2BFDF768F841EC180B51EC1A0B53ECE2
:10336000182BFDF760F853EC1B2BFDF75CF89BED79
:10337000020B41EC1A0B53EC102B51EC190BFDF71F
:1033800058F853EC1A2BFDF74EF841EC100B6D1C5E
:10339000B8E70EE0002EA8BF3846BFF628AF94ED80
:1033A000000B51EC100B81F00041C4E900017842A0
:1033B0001DE7C6F3130040F4801EC6F30A50A0F2C6
:1033C000F530471100F01F05C5F12000DDF848B0C9
:1033D00008900020069007900520EC467949002DC2
:1033E00007EB0002794408BF51F8221009D051F8C8
:1033F000223001EB8201AB404A68089922FA01F1C0
:103400001943A1FB0E26A1FB0B131A449A4234BFA9
:103410000123002303EB06080CEB8003D3E901A68C
:103420000E448E4234BF0121002192448A4411B1DE
:10343000924502D903E0924501D2012100E000212A
:10344000C3E901A641444CF82010011EA0F101007F
:10345000C4DC029800F10050850F0298DDE9036793
:103460008000DDF81480FDF756F841EC1A0B304669
:10347000FDF727FA9FED541B53EC112BFCF7D9FFF6
:1034800041EC1B0B3846FDF71CFA9FED511B53EC2A
:10349000112BFCF7CEFF41EC180B4046FDF711FA5B
:1034A0009FED4D1B53EC112BFCF7C3FF41EC190BA7
:1034B00051EC180B53EC192BFCF714FF53EC1B2B9E
:1034C000FCF710FF53EC1A2BFCF70CFFCDE90801B9
:1034D000002008909DED080B53EC1A2B51EC100BBB
:1034E000FCF7A1FF53EC1B2BFCF79DFF53EC182BB3
:1034F000FCF799FF53EC192BFCF798FF9FED381B55
:1035000053EC112BFCF795FF9FED370B41EC180B9B
:1035100053EC102B9DED080B51EC100BFCF789FFC1
:1035200053EC182BFCF7DEFE9FED310B41EC180B32
:1035300053EC102B9DED080B51EC100BFCF779FFB1
:1035400053EC182BFCF7CEFE41EC100B139810F047
:10355000004F06D06D4251EC100B81F0004141EC60
:10356000100B284684ED000B41E60000000000002F
:103570000000000000000000FB21E93F7CD9024070
:1035800000004054FB21F93F3163621A61B4D03D21
:10359000FB21F93F000000000000601A61B4D03D3B
:1035A0007370032E8A19A33BFB21394100000000F0
:1035B00083C8C96D305FE43F000000000000E03FB9
:1035C0002A79000078780000000000000000103E1A
:1035D000000000000000103C000000000000103A55
:1035E000182D4454FB21F93D3326A611460B113CFE
:1035F00000000054FB21F93D10B52DED040B2DED1D
:10360000088B82B0B0EE419AF0EE619A0B9820F0F0
:1036100000449FED4BABB4F1795F11DA9DED0A0BDD
:1036200051EC100BFCF788FF002801BFB0EE4A0AEE
:10363000F0EE6A0A02B0BDEC088B04BF04B010BD06
:103640009DED0A0B53EC102B51EC100BFCF7F1FE27
:1036500041EC180B3C480621B0EE480AF0EE680A2F
:10366000784400F081F853EC182B51EC100BFCF768
:10367000E0FE9DED0A0B41EC1B0B53EC192B51ECBA
:10368000100BFCF7D6FE41EC190B53EC1B2B51EC45
:10369000180BFCF7CEFE53EC192BFCF7C4FE9FED84
:1036A0002C0B41EC190B53EC102B51EC180BFCF7C5
:1036B000C0FE41EC100B2848844210DA53EC192B61
:1036C00051EC100BFCF7AFFE53EC1A2BFCF7AEFEDF
:1036D00041EC100B02B0BDEC088B04B010BD1F48CC
:1036E000A042BCBF9FED1E1B8DED001B06DBA4F5A9
:1036F00000100190002000909DED001B51EC100B7C
:1037000053EC112BFCF78FFE9DED000B41EC180BD9
:1037100053EC102B51EC1A0BFCF785FE41EC1A0B05
:1037200053EC192B51EC180BFCF77DFE53EC1A2BC4
:10373000FCF77CFE41EC100BCCE700000000000021
:10374000000000000000F03F9C7500000000000039
:10375000000000000000E03F3333D33F0000E93FAA
:10376000000000000000D23F70B504462DED028B32
:103770004D1E00EBC500B0EE408AF0EE608A90ED81
:10378000000B35F0060017D053EC182B51EC100B42
:10379000FCF74FFE41EC100B6D1E04EBC50090EDE5
:1037A000001B51EC100B53EC112BFCF79BFD41EC73
:1037B000100B35F00600E7D1022D36D0042D1CD0B9
:1037C000062D1CBFBDEC028B70BD53EC182B51ECC9
:1037D000100BFCF72EFE94ED0A1B53EC112BFCF79B
:1037E00081FD53EC182BFCF724FE94ED081B53ECE1
:1037F000112BFCF777FD41EC100B53EC182B51EC1F
:10380000100BFCF716FE94ED061B53EC112BFCF786
:1038100069FD53EC182BFCF70CFE94ED040B53ECF4
:10382000102BFCF75FFD41EC100B53EC182B51EC07
:10383000100BFCF7FEFD94ED021B53EC112BFCF773
:1038400051FD53EC182BFCF7F4FD94ED001B53ECE9
:10385000112BFCF747FDBDEC028B41EC100B70BD4A
:1038600031B504462DED040B2DED0A8BB0EE41BAB7
:10387000F0EE61BA0B989DED0A0B20F00040B0F11C
:10388000795F0DDA51EC100BFFF7ABFB042808BF92
:1038900000F09AF89DED0A0BBDEC0A8B05B030BD27
:1038A00053EC102B51EC100BFCF7C3FD41EC180B43
:1038B0009DED0A0B53EC182B51EC100BFCF7B9FDE6
:1038C00041EC190B2C48B0EE480AF0EE680A0521CD
:1038D0007844FFF749FF9FED2ACBB0EE40AAF0EE07
:1038E00060AA9CB353EC1C2B51EC190BFCF7A1FD07
:1038F00041EC1C0B53EC1A2B51EC190BFCF799FD06
:103900009FED210B41EC190B53EC102B51EC1B0BD1
:10391000FCF78FFD53EC192BFCF785FD53EC182BAE
:10392000FCF787FD53EC1B2BFCF77DFD53EC1C2BA8
:10393000FCF779FD9DED0A1B53EC112BFCF776FD8E
:10394000BDEC0A8B05B041EC100B30BDFFE753EC2A
:103950001A2B51EC180BFCF76CFD53EC1C2BFCF7ED
:10396000C1FC53EC192BFCF764FD9DED0A1B53ECD5
:10397000112BFCF7B7FCE3E7247400000000000003
:10398000495555555555C5BF000000000000E03FA2
:1039900010B553EC102B51EC100BFCF7A3FC41ECD1
:1039A000100B10BD000000009FED050B10B553EC8F
:1039B000102B51EC100BFCF715FF41EC100B10BD58
:1039C00000000000000000009FED050B10B553EC57
:1039D000102B51EC100BFCF72CFD41EC100B10BD23
:1039E000000000000000001002E008C8121F08C11B
:1039F000002AFAD170477047002001E001C1121F70
:103A0000002AFBD1704700000149086070470000A0
:103A1000A4060020D0ED000A00EE101AB8EEC00A8D
:103A2000F4EEC00AF1EE10FA05DD00EE101AB8EE61
:103A3000C00A80ED000AD0ED000A4A4200EE102ACA
:103A4000B8EEC00AF4EEC00AF1EE10FA06D24A420D
:103A500000EE102AB8EEC00A80ED000A70470000A0
:103A600070B505460C4600260DB1022C00D870BD7D
:103A7000A11E06480288284601F00CFF0646A01E3B
:103A80002E54310A601E295400BFF0E718060020AA
:103A900070B505460C4600260DB1022C00DC70BD49
:103AA000601E81B2FF22284601F00EFF0646601E0E
:103AB0002E5400BFF3E700000B48007A48B10B48D2
:103AC00090ED000ABCEEC00A10EE100A084908602A
:103AD00008E0084890ED000ABCEEC00A10EE100A9B
:103AE0000349086070470000081E022028010020DA
:103AF000400C00402C01002010B52DED0A8B4448ED
:103B000090ED000A10EE101A0846FCF734FD41EC67
:103B10001B0BB0EE4B0AF0EE6B0AFFF7E1FAB0EECA
:103B200040AAF0EE60AA9FED3B0B53EC102B51EC3A
:103B30001A0BFCF77EFC41EC180B354890ED010A9E
:103B400010EE101A0846FCF716FD41EC1C0BB0EE07
:103B50004C0AF0EE6C0AFFF7C3FAB0EE40AAF0EEA2
:103B600060AA2B4890ED000A10EE101A0846FCF7E8
:103B700002FD41EC1C0BB0EE4C0AF0EE6C0AFFF7B4
:103B8000AFFAB0EE40BAF0EE60BA53EC1A2B51EC3B
:103B90001B0BFCF748FC41EC190B53EC182BFCF702
:103BA00015FD08D21D48006828B91D480068401C52
:103BB0001B49086002E000201949086017480068A6
:103BC00060B91748006817490968884206D901207A
:103BD00012490860FDF760FF134908600F4800684C
:103BE000012811D11148006811494860FDF754FFC0
:103BF0000D490968401A962806D300200749086035
:103C00000949086006490860BDEC0A8B10BD000038
:103C100020220220000000A09999E93F60010020C5
:103C200058010020500100205C01002054010020B8
:103C3000141E022008B542E04FF0FF336A46F0211F
:103C4000002006F06BFC0446012C33D1009800F0F4
:103C5000100040B11A4BB3F90C20B3F90A10B3F9B4
:103C6000080004F08FFD009800F0200050B1144DC2
:103C7000B5F90630B5F90420B5F90210B5F9000020
:103C800004F01EFD009800F0800098B10C4BB3F9D1
:103C90000C20B3F90A10B3F9080004F073FD084DC5
:103CA000B5F90630B5F90420B5F90210B5F90000F0
:103CB00004F006FD002005F05DFA02490860BBE74C
:103CC000001D0220F8000020164890ED010AF7EED2
:103CD000000A20EE200A1448D0ED060AB7EE001ABA
:103CE00000EE810A114880ED020A0E4890ED000AAC
:103CF000F7EE000A20EE200A0B48D0ED050AB7EED9
:103D0000001A00EE810A094880ED010A054890ED8D
:103D1000020AF7EE000A20EE200A044880ED030AAA
:103D200070470000241F0220381F0220B81E022006
:103D30002DE9F04104460D4616461F4694B134481D
:103D400004F080FA00EE100AB8EEC00A3148D0ED57
:103D5000020AB7EE001A60EE810A20EE200A80ED1A
:103D6000050A1FE0A5B12A4804F06CFA00EE100A1B
:103D7000B8EEC00A2748D0ED020AF1EE600AB7EEAD
:103D8000001A60EE810A20EE200A80ED050A09E0A3
:103D90009FED210A1F4880ED050A4FF496711C48DB
:103DA00004F072FA96B11D4804F04CFA00EE100AC5
:103DB000B8EEC00A1748D0ED030AB7EE001A60EE5D
:103DC000810A20EE200A80ED060A1FE0A7B1134801
:103DD00004F038FA00EE100AB8EEC00A0D48D0ED33
:103DE000030AF1EE600AB7EE001A60EE810A20EED7
:103DF000200A80ED060A09E09FED070A054880EDDC
:103E0000060A4FF49671054804F03EFABDE8F081C9
:103E1000601F0220381F0220000000006C1F0220DB
:103E200070B52DED108B8A480078052802D000204F
:103E3000884908602D24884890ED0A8A874890EDCB
:103E4000000AF7EE000A20EE200A8548D0ED050AA8
:103E5000B7EE001AF0EE408A40EE818A7F4890ED7E
:103E6000010AF7EE000A20EE200A7D48D0ED060A8E
:103E7000B7EE001AB0EE409A00EE819A9FED790AF3
:103E800028EE000A10EE101A0846FCF774FB41EC0D
:103E90001E0BB0EE4E0AF0EE6E0AFFF72DF9B0EEF3
:103EA00040CAF0EE60CAB6EE000A28EE800A10EEB4
:103EB000101A0846FCF75FFB41EC1D0B53EC1C2B62
:103EC000FCF7B7FA41EC1B0B9FED660A28EE000ADF
:103ED00010EE101A0846FCF74EFB41EC1E0BB0EE3C
:103EE0004E0AF0EE6E0AFFF797F8B0EE40CAF0EE19
:103EF00060CA19EE100AFCF73EFB41EC1D0B53ECB7
:103F00001C2BFCF796FA41EC1F0B53EC1B2BFCF718
:103F10008AFA41EC1A0BFCF771FB534988609FED5C
:103F2000510A28EE000A10EE101A0846FCF723FB8F
:103F300041EC1E0BB0EE4E0AF0EE6E0AFFF7DCF815
:103F4000B0EE40CAF0EE60CAB6EE000A29EE000AF2
:103F500010EE101A0846FCF70EFB41EC1D0B53EC5B
:103F60001C2BFCF766FA41EC1A0B9FED3E0A28EE7B
:103F7000000A10EE101A0846FCF7FDFA41EC1E0B81
:103F8000B0EE4E0AF0EE6E0AFFF746F8B0EE40CA09
:103F9000F0EE60CA18EE900AFCF7EDFA41EC1D0B4A
:103FA00053EC1C2BFCF745FA41EC1B0B53EC1A2B82
:103FB000FCF798F941EC1F0BFCF720FB2A494860FD
:103FC000244890ED000A0068401C2249B8EE400ADF
:103FD000DFED260A20EE200ADFED250A80EE201A0A
:103FE00011EE105A08602846FCF7C5FA41EC1D0B8B
:103FF000B0EE4D0AF0EE6D0AFFF77EF8B0EE40BA73
:10400000F0EE60BA2046FCF786FA41EC1C0B53EC4C
:104010001B2BFCF70EFA41EC1A0BFCF78DFA044649
:104020000D48D0ED0A0AB0EE600A00EE904AF8EEB4
:10403000E00A104803F032FA0E4890ED0B0AB1EE98
:10404000400A094880ED030ABDEC108B70BD0000EA
:1040500021010020F8010020681E0220241F0220F8
:10406000381F0220F4FE8EBCB81E02208716C940FD
:1040700000001644982102200548007818B1054830
:1040800090F8B00008B1002070470120FCE7000064
:1040900020010020241D022010B52DED068B0020EC
:1040A00008EE100A2F4890ED010AF7EE000A20EE04
:1040B000200A2D48D0ED060AB7EE001A00EE810A5C
:1040C0002A4880ED020A274890ED000AF7EE000A20
:1040D00020EE200A2448D0ED050AB7EE001A00EEC3
:1040E000810A224880ED010A2148D0ED0A0AB0EE8B
:1040F000600AF8EEC80A1F4803F0D0F9B1EE400A92
:10410000DFED1D0A20EE200A184880ED030A18484A
:1041100090F83C00022821D1154890ED0A0A10EED3
:10412000101A0846FCF727FA41EC1A0BB0EE4A0ABF
:10413000F0EE6A0AFEF7D4FFB0EE409AF0EE609A15
:104140009FED0E0B53EC102B51EC190BFCF726FADC
:1041500004D29FED0C0A054880ED030ABDEC068BE6
:1041600010BD0000241F0220381F0220B81E0220AC
:10417000681E0220982102206666663F000000004B
:104180000000E03F0000000000EE100AB8EEC00A98
:10419000DFED1A0A80EE201A9FED190A21EE000ABF
:1041A000F7EE000A20EE200A164B83ED000A4B4280
:1041B00000EE103AB8EEC00A9FED101AC0EE010AE8
:1041C0009FED0F0A20EE800AF7EE000A20EE200A8B
:1041D0000C4B83ED010A00EE102AF8EEC00A9FEDA9
:1041E000071A80EE810ADFED080A20EE200AF7EEBA
:1041F000000A20EE200A83ED020A704700002544E1
:1042000000404E45241F02200000F04310B52C2131
:104210001D48FCF75CF84FF47A711C4804F034F840
:104220001B48D0ED021AB0EE611AD0ED011AF0EE83
:10423000610AD0ED001AB0EE610A002332224FF479
:10424000F0711448FDF7AEFC002419E01049D1EDDF
:10425000051AB0EE611AD1ED041AF0EE610AD1ED43
:10426000031AB0EE610A04EB04110B4A02EB810061
:1042700000234FF4FA7242F21071FDF793FC641CB4
:10428000042CE3DB10BD0000B81E0220E41E022057
:10429000E0010020982102208820022010B52DED99
:1042A000048B384890ED010AF7EE000A20EE200A50
:1042B0003548D0ED060AB7EE001A10EEC10A3348B1
:1042C00080ED020A2F4890ED000AF7EE000A20EE7A
:1042D000200A2D48D0ED050AB7EE001A10EEC10AEB
:1042E0002A4880ED010A2A4890ED0A0A10EE101AB9
:1042F0000846FCF740F941EC190BB0EE490AF0EE24
:10430000690AFEF7EDFEB0EE408AF0EE608A9FED9E
:10431000210B53EC102B51EC180BFCF73FF92DD06F
:104320001B4890ED0A0AB5EEC00AF1EE10FA12D859
:10433000D0ED0A0AB0EE600ADFED180A184803F063
:10434000ADF8B1EE400ADFED170A20EE200A0F4863
:1043500080ED030A12E00E48D0ED0A0AB0EE600AC2
:10436000DFED110A0E4803F099F8B1EE400ADFEDD7
:104370000D0A20EE200A054880ED030ABDEC048BEF
:1043800010BD0000241F0220381F0220B81E02208A
:10439000681E02200000000000806640000034C358
:1043A000982102206666663F0000344349B19FEDC4
:1043B0000F0A0F4A82ED020A9FED0C0A82ED030AF2
:1043C00013E048B19FED0B0A094A82ED020A9FED06
:1043D000090A82ED030A08E09FED070A044A82ED0C
:1043E000020A9FED050A82ED030A704700401C4552
:1043F000381F02200060EA4500409C459FED060AF8
:10440000064880ED020A9FED040A80ED010A9FED47
:10441000020A80ED030A704700000000B81E022067
:1044200008B5BFE04FF0FF336A464FF4007100203B
:1044300006F074F80546012D7ED1009800F4007056
:10444000002879D05848D0ED021AB0EE611AD0EDAC
:10445000011AF0EE610AD0ED001AB0EE610A0123F4
:1044600032224FF4F0715148FDF79CFB002419E013
:104470004D49D1ED051AB0EE611AD1ED041AF0EEF6
:10448000610AD1ED031AB0EE610A04EB0411484A47
:1044900002EB810001234FF4FA7242F21071FDF732
:1044A00081FB641C042CE3DB42480078002869D0BF
:1044B000414890F83C00002864D03E480078072826
:1044C00015D2DFE800F01404070B080E1100FFF707
:1044D000E3FD0DE000BFFFF7F7FB09E0FFF7DEFEAD
:1044E00006E0FFF79DFC03E0FFF788FF00E000BF58
:1044F00000BF3248D0ED031AB0EE611AD0ED021AB7
:10450000F0EE610AD0ED011AB0EE610A1C3002F043
:1045100075FB002426E029491C3131F9141001EE05
:10452000101AB8EEC11AF0EE410A2449143131F9DB
:10453000141001EE101A00E02FE0B8EEC11AB0EE30
:10454000410A04EB04111A4A02EB810002F0A6FFB3
:10455000BDEEC00A10EE100A01B21848243020F84F
:104560001410641C042CD6DBFFF786FD18B9134821
:10457000002141628162124810494A6A0260896AD8
:10458000416003E00E4800210160416000230122E8
:1045900020210C48006805F0D9FD002004F0EAFD58
:1045A000094908603EE70000E00100209821022050
:1045B0008820022020010020681E0220B81E022050
:1045C000001D022024000020DC01002010B51F483F
:1045D000007803280CD01E4890ED090A80ED120ADD
:1045E000C8211C4803F050FEC8211B4803F04CFEB4
:1045F000174890ED0A0A80ED030A174803F022FEDF
:10460000C0F1010000EE100AB8EEC00A1048D0ED6B
:104610000A0A20EE200A80ED010A90ED090A80EDD9
:10462000040A0C4803F00EFE00EE100AF8EEC00A71
:10463000074890ED120A90ED121AF3EE0E1A31EEC1
:10464000C11A01EE200A80ED020A10BD1F010020F0
:10465000681E0220281E0220341E022010B51E22D1
:104660001D491E48FBF71AFE05211C48903880F8AA
:104670007F10102180F87910062180F8781002212F
:1046800080F87E1001201549903981F87700144890
:10469000018812489038A0F8851012480088124905
:1046A0000988084481B20D489038A0F881100F485D
:1046B00000880F490988084481B208489038A0F85A
:1046C00083100C4801780548903880F880101E212E
:1046D00080F88F1010BD0000400600204027022007
:1046E000340600203C060020360600203E0600204E
:1046F000380600203A0600200521154880F87F1072
:10470000022180F87910012180F8781080F87E105D
:1047100001200F4981F877000E4801880C48A0F865
:1047200081100D4801880A48A0F8831009480188C3
:104730000748A0F8871008480088F03881B204487C
:10474000A0F8891005480178014880F8801070476A
:10475000B02602203C0600203E0600203A0600203B
:104760000521174880F87F10032180F87910012176
:1047700080F8781080F87E100120114981F87700C8
:10478000104801880E48A0F881100F48008828388A
:1047900081B20B48A0F883100A480088323881B2F1
:1047A0000748A0F8871008480088283881B20448D4
:1047B000A0F8891005480178014880F880107047FA
:1047C000B02602203C0600203E0600203A060020CB
:1047D0000521174880F87F10042180F87910012105
:1047E00080F8781080F87E100120114981F8770058
:1047F000104801880E48A0F881100F4800885038F2
:1048000081B20B48A0F883100A480088643881B24E
:104810000748A0F8871008480088503881B204483B
:10482000A0F8891005480178014880F88010704789
:10483000B02602203C0600203E0600203A0600205A
:104840000521174880F87F1080F87910012180F841
:10485000781080F87E100120114981F87700114806
:1048600001880F48A0F881100F480088783881B27D
:104870000B48A0F883100B480088323881B20848F2
:10488000A0F8871008480088783881B20448A0F85A
:10489000891006480178024880F8801070470000AF
:1048A000B02602203C0600203E0600203A060020EA
:1048B0000521174880F87F10062180F87910012122
:1048C00080F8781080F87E100120114981F8770077
:1048D000104801880E48A0F881100F480088A038C1
:1048E00081B20B48A0F883100A480088643881B26E
:1048F0000748A0F8871008480088A03881B204480B
:10490000A0F8891005480178014880F880107047A8
:10491000B02602203C0600203E0600203A06002079
:104920000521174880F87F10072180F879100121B0
:1049300080F8781080F87E100120114981F8770006
:10494000104801880E48A0F881100F480088C83828
:1049500081B20B48A0F883100A480088323881B22F
:104960000748A0F8871008480088C83881B2044872
:10497000A0F8891005480178014880F88010704738
:10498000B02602203C0600203E0600203A06002009
:104990000521154880F87F10082180F87910012141
:1049A00080F8781080F87E1001200F4981F8770098
:1049B0000E4801880C48A0F881100D4801880A486B
:1049C000A0F8831009480088643881B20648A0F82E
:1049D0008710074801880448A0F889100548017825
:1049E000014880F880107047B02602203C06002065
:1049F0003E0600203A0600202DE9F041B4B00646FC
:104A00000F4615461C4605F109001FFA80F802A85A
:104A100023462A4639460090304602F0E7FDA02C96
:104A200005D1424602A9084800F0B4FA0AE0A52CD4
:104A300005D1424602A9054800F0ACFA02E034B0C4
:104A4000BDE8F08100BFFAE7AC2C0220602702200D
:104A500070B504464FF4077094FBF0F0C6B24FF403
:104A6000077094FBF0F100FB114085B205E04FF4B4
:104A7000077000F009F8701EC6B2002EF7D115B10C
:104A8000284600F001F870BD0146114A12884A43D9
:104A90004FF0E0235A6100229A611A46126942F0EF
:104AA00001021A6100BF4FF0E022106900F001021C
:104AB0001AB100F48032002AF5D04FF0E0221269DA
:104AC00022F001024FF0E0231A6100229A61704740
:104AD000DA000020012018E04FF4FA72154901EBCA
:104AE00000118A810022134901EB00114A6011492B
:104AF00001EB00118A600F4901EB00110A700021DF
:104B00000C4A103A1154411CC8B20B28E4DD4FF492
:104B1000FA6108481038A0F8DC100021C0F8D41061
:104B2000C0F8D81080F8D01000200249103908735E
:104B300070470000341D022008B502F07BFB009096
:104B40000FE002F093FA03F0EDFD0648FDF7B8F828
:104B5000002004F00FFB044908603221684604F08D
:104B60006DFCEEE7141D0220FC0000202DE9FC4145
:104B700004460F46E6686A4601A9206800F0B6FEC2
:104B80007FB99DF8040030B12089BDF80010C1EB59
:104B90004000E08206E02089BDF80010401AE08263
:104BA00000E000BFE08AA18A884231DAA18A208928
:104BB000C1EB4000E18A084426490860A18A2089A7
:104BC000C1EB400005B2A28A91192A46606800F044
:104BD000E1F9A84203D001201F49086002E000204B
:104BE0001D4908600020A082E08A05B2A28A9119BE
:104BF0002A46606800F0CEF9A84203D00120164989
:104C0000086002E0002014490860E08AA0821FE0EA
:104C1000E08AA18A401A0F490860E08AA18A401AF6
:104C200005B2A28A91192A46606800F0B3F9A84239
:104C300003D001200849086002E00020064908600E
:104C4000E08A2189490090FBF1F201FB1200A08269
:104C5000BDE8FC811C0600202006002010B5474856
:104C60000078062808D0464890ED0C0A80ED130A1B
:104C700090ED130A80ED010A03F06EFC404981F8C3
:104C80003C00084690F83D0002280ED1084690F8F6
:104C90003C00022809D1084690ED0C0A80ED030A79
:104CA00090ED130A80ED010A29E0354890F83D00A7
:104CB00003280AD1324890F83C00022805D1304838
:104CC00090ED0C0A80ED130A19E02D4890ED0C0AC6
:104CD00080ED030A2B4890ED040AF7EE000A20EE5F
:104CE000200A2948D0ED090A9FED281A00EE810A12
:104CF0002348D0ED010A30EE200A80ED010A204859
:104D000090ED090A80ED040A1E4890ED030AF7EEC3
:104D1000000A20EE200A1C48D0ED080A9FED1B1A5D
:104D200000EE810A1648D0ED020A30EE200A80ED2E
:104D3000020A00BF90ED020AFBEE090AB4EEE00A97
:104D4000F1EE10FA04D8BBEE090A80ED020A0DE07C
:104D50000B4890ED020AF3EE0E0AB4EEE00AF1EE13
:104D600010FA03DBB3EE0E0A80ED020A00BF03F077
:104D7000F3FB034981F83D0010BD00001F01002036
:104D8000681E0220241F0220381F02203333333FC5
:104D9000028842800A7BCB7A42EA032202800288A0
:104DA0004388D21AB2F5805F09DD8268521E8260A4
:104DB00002884388D21AA2F50052C26113E0028829
:104DC0004388D21A12F5805F09DA8268521C826029
:104DD00002884388D21A02F50052C26103E00288B9
:104DE0004388D21AC2610388826803EB4232838A05
:104DF000D21AC260144A90420CD190ED030AB8EE68
:104E0000C00ADFED120A80EE201ABDEEC10A80ED65
:104E1000040A0BE090ED030AB8EEC00ADFED0C0ABD
:104E200080EE201ABDEEC10A80ED040A8B7B4A7B1E
:104E300043EA022212B282800B7CCA7B43EA02223E
:104E400012B2C28070470000341C0220CDCC4C440A
:104E5000610BB64110B50446FCF71EFE024901EB9A
:104E60000411486010BD0000341D022082B0CDE95D
:104E7000000121F0004001909DED000B02B051ECCB
:104E8000100B704770B50446002500BF00BF002C12
:104E9000FDD000BF00BF00235A1E1946A06904F0D0
:104EA00049FE00BF217D481C20752068455C207D9F
:104EB000E168B0FBF1F201FB12002075A068401C14
:104EC000A0602069401E206100BF00231A461946D9
:104ED000A06904F05DFF00BF284670BD2DE9F041D8
:104EE00004460D461646002700BF00BF002CFDD02B
:104EF00000BF00BF00235A1E1946A06904F01AFE25
:104F000000BF002015E0227D511C21752168895CBD
:104F10002954217DE268B1FBF2F302FB13112175E4
:104F2000A168491CA1602169491E2161791CCFB289
:104F3000401CB04202DA21690029E4D100BF0023FD
:104F40001A461946A06904F023FF00BF3846BDE8A1
:104F5000F08110B5044600BF00BF002CFDD000BF9B
:104F600000BF00BF0029FDD000BF00BF00BF002A66
:104F7000FDD000BFA36153B121608818401E60605E
:104F8000E260A260002020612075607510BD4FF0C6
:104F9000FF30FBE72DE9F04104460D461646002799
:104FA00000BF00BF002CFDD000BF1DB94FF0FF3087
:104FB000BDE8F08100BF00235A1E1946A06904F025
:104FC000B9FD00BF002014E02A5C637D591C6175A7
:104FD0002168CA54617DE268B1FBF2F302FB131150
:104FE0006175A168491EA1602169491C21617F1C6E
:104FF000401CB04202D2A1680029E5D100BF0023C5
:105000001A461946A06904F0C3FE00BF3846CFE730
:10501000014600BF00BF0029FDD000BF08697047EE
:1050200010B10122034B5A7211B10022014B5A7286
:1050300070470000081E022010B50648407A28B1CB
:105040000449498908B203F0B9FF01E003F0AEFF5B
:1050500010BD0000081E022030B52DED068B9DB05E
:1050600004469FEDFE0AFE4880ED0C0A94ED0C0A02
:10507000B8EEC00AD0ED0C0A20EE200A80ED020A3C
:1050800090ED020AF0EE000A20EE200A80ED030AFD
:1050900094ED050AD0ED0C0A20EE200A80ED040AFA
:1050A00094ED060AD0ED0C0A20EE200A80ED050AE8
:1050B00094ED070AD0ED0C0A20EE200A80ED060AD6
:1050C00090ED020AF0EE080A80EE801A80ED071AD1
:1050D00090ED030AF0EE080A80EE801A80ED081ABF
:1050E00090ED040AF0EE080A80EE201A80ED091A0D
:1050F00090ED050AF0EE080A80EE201A80ED0A1AFB
:1051000090ED060AF0EE080A80EE201A80ED0B1AE8
:1051100090ED070AD4ED020A20EE200A80ED000A85
:1051200094ED020AD4ED030A30EE600AD0ED080ACD
:1051300020EE200A80ED010A1C2116A8FBF7C7F813
:105140001C210FA8FBF7C3F81C2108A8FBF7BFF828
:105150001C2101A8FBF7BBF89FEDC20AB0EE409AF4
:105160009FEDC00AF0EE409A9FEDBE0AB0EE40AA55
:105170000025002035E000EB4001891CBA4A02EB13
:10518000810191ED002AF0EE421A00EB4001491C2A
:1051900002EB810191ED002AB0EE421A00EB4001D2
:1051A00002EB810191ED002AF0EE420AAC4991ED4B
:1051B000002AB0EE420A03F0CFFE16A901EB8001EF
:1051C00081ED000A16A901EB800191ED000AB5EE10
:1051D000C00AF1EE10FA03D008A941F825006D1CB1
:1051E000401C0728C7DB0025002035E000EB40010C
:1051F000891C9E4A02EB810191ED002AF0EE421AD1
:1052000000EB4001491C02EB810191ED002AB0EE58
:10521000421A00EB400102EB810191ED002AF0EE11
:10522000420A8F4991ED012AB0EE420A03F094FE42
:105230000FA901EB800181ED000A0FA901EB8001AC
:1052400091ED000AB5EEC00AF1EE10FA03D001A903
:1052500041F825006D1C401C0728C7DB9FED818AA3
:10526000DFED808A002044E000213FE008AA52F8E8
:10527000202016AB03EB820292ED000A01AA52F83D
:1052800021200FAB03EB8202D2ED000A60EE200A70
:1052900008AA52F82020C2EBC202754B03EB82022F
:1052A00001AB53F8213052F8232000EE102AB8EE5B
:1052B000C01AB0EE680A00EE810AF0EE408A08AA31
:1052C00052F8202016AB03EB8202D2ED000A01AAAD
:1052D00052F821200FAB03EB820292ED001AB0EEE0
:1052E000480A00EE810AB0EE408A491C0329BDDB62
:1052F000401C0328B8DBB5EEC08AF1EE10FA04D1E9
:105300009FED580AB0EE408A50E088EE880AB0EE71
:10531000409A534890ED090A20EE090AB0EE409AEF
:1053200090ED040AB4EEC90AF1EE10FA04D890ED3B
:10533000040AB0EE409A0FE0494890ED040AB1EE3D
:10534000400AB4EEC90AF1EE10FA05DB90ED040A4A
:10535000B1EE400AB0EE409A94ED050A30EE090A2B
:1053600084ED050A94ED050A3D48D0ED040A9FED51
:10537000411A60EE810AB4EEE00AF1EE10FA07D2AB
:1053800090ED040ADFED3B0A20EE200A84ED050AC9
:1053900094ED050A3248D0ED040AB4EEE00AF1EECD
:1053A00010FA03DD90ED040A84ED050A9FED2D0A45
:1053B000B0EE408A9FED2B0AF0EE408A002044E0D8
:1053C00000213FE008AA52F8202016AB03EB82022E
:1053D00092ED000A01AA52F821200FAB03EB8202E2
:1053E000D2ED000A60EE200A08AA52F82020C2EB93
:1053F000C202214B03EB820201AB53F8213052F879
:10540000232000EE102AB8EEC01AB0EE680A00EEB3
:10541000810AF0EE408A08AA52F8202016AB03EB6E
:105420008202D2ED000A01AA52F821200FAB03EB51
:10543000820292ED001AB0EE480A00EE810AB0EE48
:10544000408A491C0329BDDB401C0328B8DBB5EEAC
:10545000C08AF1EE10FA16D110E00000D7A3903FF9
:10546000F01E02200000000024020020780200202C
:10547000C80300203F351E3F500500201FED070ADE
:10548000B0EE408A50E088EE880AF0EE409A7E48FE
:1054900090ED0A0A20EE290AF0EE409A90ED050AF6
:1054A000B4EEE90AF1EE10FA04D890ED050AF0EE38
:1054B000409A0FE0744890ED050AB1EE400AB4EE50
:1054C000E90AF1EE10FA05DB90ED050AB1EE400AAB
:1054D000F0EE409A94ED060A30EE290A84ED060AB1
:1054E00094ED060A6848D0ED050A1FED1E1A60EE1D
:1054F000810AB4EEE00AF1EE10FA07D290ED050A47
:105500005FED240A20EE200A84ED060A94ED060AD7
:105510005D48D0ED050AB4EEE00AF1EE10FA03DDC5
:1055200090ED050A84ED060A1FED320AB0EE408ABE
:105530001FED340AF0EE408A002044E000213FE0F5
:1055400008AA52F8202016AB03EB820292ED000A63
:1055500001AA52F821200FAB03EB8202D2ED000A20
:1055600060EE200A08AA52F82020C2EBC202474B84
:1055700003EB820201AB53F8213052F8232000EEF6
:10558000102AB8EEC01AB0EE680A00EE810AF0EEFA
:10559000408A08AA52F8202016AB03EB8202D2ED13
:1055A000000A01AA52F821200FAB03EB820292ED10
:1055B000001AB0EE480A00EE810AB0EE408A491C9B
:1055C0000329BDDB401C0328B8DBB5EEC08AF1EE31
:1055D00010FA04D11FED5D0AB0EE408A50E088EE6B
:1055E000880AB0EE40AA284890ED0B0A20EE0A0A7D
:1055F000B0EE40AA90ED060AB4EECA0AF1EE10FA37
:1056000004D890ED060AB0EE40AA0FE01E4890EDD7
:10561000060AB1EE400AB4EECA0AF1EE10FA05DB52
:1056200090ED060AB1EE400AB0EE40AA94ED070AEA
:1056300030EE0A0A84ED070A94ED070A1248D0ED0D
:10564000060A1FED741A60EE810AB4EEE00AF1EE6C
:1056500010FA07D290ED060A5FED7A0A20EE200AD2
:1056600084ED070A94ED070A0748D0ED060AB4EE68
:10567000E00AF1EE10FA03DD90ED060A84ED070A68
:105680001DB0BDEC068B30BDF01E02208C04002046
:1056900010B52DED028B0446B0EE408AF0EE608A24
:1056A00084ED018AC4ED008A38EEC80A84ED020A4E
:1056B0002046FFF7D1FC94ED050AD4ED020A20EE56
:1056C000200A84ED080A94ED090AD4ED060A94ED47
:1056D000021A00EE810A84ED090A94ED020AD4ED63
:1056E000030A30EE600AD4ED070A20EE200A84EDAA
:1056F0000A0A04F12400616BFEF78CF994ED080AA4
:10570000D4ED090A30EE200AD4ED0A0A30EE200A60
:1057100084ED0B0A04F12C00216BFEF77BF994ED6C
:10572000030A84ED040A94ED020A84ED030A94ED61
:105730000B0ABDEC028B10BDF0EE400AC0ED020A70
:1057400090ED021AD0ED031A31EE611AD0ED001A75
:1057500021EE211AD0ED021A90ED032AF0EE002A74
:1057600042EEC21A90ED042A71EE821A90ED012ADF
:1057700002EE211AB0EE410A90ED031A80ED041AF0
:1057800090ED021A80ED031A7047000010B500205A
:105790000AE0C0EB0011094A02EB81018A8808493E
:1057A00021F81020411CC8B20428F2DB01F034F9C2
:1057B00002F072FE00F08EFA10BD0000CC1A02203A
:1057C000CC1E02202E48007DC00910B101202D49B9
:1057D00008702B48007DC00938B12948007DC0F30E
:1057E000001010B10020274908702748007830B118
:1057F000012808D002281FD003283ED127E000202E
:10580000224908703AE01E48007A032809D11C4852
:10581000407A012805D11A48408940F24A5188420D
:1058200002DA1848007818B105201849087002E01B
:1058300001201649087021E01248007818B10520AF
:105840001249087002E001201049087016E0104863
:105850000078042802D103200C4908700C48007815
:10586000032802D102200949087009480078052858
:1058700002D104200549087000E000BF00BF704756
:10588000F4090220B81E02201C0100202001002083
:105890001E01002030B5034613B94FF6FF7030BD2E
:1058A00009E013F8014B82EA0400C0B2054D35F857
:1058B000100080EA2222081EA1F10101F1D1104658
:1058C000EDE70000FAA9000830B5034605E013F83B
:1058D000010B80EA02040448025D081EA1F10105E3
:1058E000A9B2F4D1104630BDF9A8000870B506463B
:1058F0000C4615463046FBF78CFD20703046FBF712
:1059000084FD288070BD000010B5174AB2F844200D
:1059100011B2164A128810B200F09AF900EE100A7D
:10592000B8EEC00A1248D0ED000A20EE200A0E4858
:1059300080ED0A0A0246B2F8402011B20D4A1288E0
:1059400010B200F085F900EE100AB8EEC00A0A485D
:10595000D0ED000A20EE200A034880ED090A01F08C
:105960008DF802F0A7FD10BD681E0220F81B022072
:1059700010010020BC1B02201401002034480078D4
:1059800000285CD0012804D002280ED003285DD165
:105990000FE030480078052803D106202E49087012
:1059A00002E002202C49087050E007202A490870C4
:1059B0004CE02A48407A03281BD12948408840F20D
:1059C0004A51884215DA25484089884211DB25482A
:1059D000407808B9012000E00020224948700846BC
:1059E000407818B903201C49087002E005201A49C4
:1059F00008701A48007DC0F3801010B103201649CA
:105A000008701648407DC0F3400010B105201249CF
:105A100008701248007DC00968B91048407A032810
:105A20000CD10F48408840F2B621884206DD0B4871
:105A30004089884202DC04200749087006E0002003
:105A400005490870074981F83C0000BF00BF704756
:105A50001C010020200100201E010020F40902206A
:105A600014060020681E02200548007A05490870C7
:105A70000348407A487002484089488070470000D7
:105A8000F409022014060020134908781349497CC0
:105A90000A2903DD01221249CA7702E002221049D5
:105AA000CA77072811D100210D4A91770D4991ED50
:105AB000090AB1EE400A10EE101A51620949096B49
:105AC00091620649496C116203E00221044A917710
:105AD00000BF00BF704700001E01002030230220DD
