:020000040800F2
:10000000883D022079020008B11900085D19000836
:10001000AD190008D5070008BB2E0008000000003D
:10002000000000000000000000000000C101000806
:10003000C11200080000000015020008712100082C
:10004000930200089302000893020008930200083C
:10005000930200089302000893020008930200082C
:10006000C5120008930200089302000893020008DA
:10007000930200089302000893020008930200080C
:1000800093020008930200089302000893020008FC
:10009000E508000893020008930200089302000894
:1000A00093020008930200089302000893020008DC
:1000B00093020008930200085122000893020008EE
:1000C00093020008930200089302000893020008BC
:1000D0009302000841270008930200087D290008C8
:1000E000930200089302000893020008930200089C
:1000F000930200089302000893020008930200088C
:10010000930200089302000893020008930200087B
:10011000930200089302000893020008930200086B
:10012000930200089302000893020008930200085B
:10013000930200089302000893020008930200084B
:10014000250A0008930200089302000893020008A1
:10015000930200089302000893020008692B00082C
:10016000930200089302000893020008930200081B
:10017000930200089302000893020008930200080B
:1001800093020008930200089302000893020008FB
:1001900093020008930200089302000893020008EB
:1001A000000000000000000093020008DFF80CD0FF
:1001B00000F090FA00480047994B0008883D022063
:1001C0002A4B19680868B0E8F04F80F30988BFF33C
:1001D0006F8F4FF0000080F311887047000000001F
:1001E00006480068006880F3088862B661B6BFF30D
:1001F0004F8FBFF36F8F00DF00BF00BF08ED00E03F
:10020000DFF80C00016841F470010160704700BF25
:1002100088ED00E0EFF30980BFF36F8F134B1A688E
:100220001EF0100F08BF20ED108A20E9F04F10607B
:1002300008B44FF0500080F31188BFF34F8FBFF325
:100240006F8F07F021FC4FF0000080F3118808BC8D
:1002500019680868B0E8F04F1EF0100F08BFB0EC46
:10026000108A80F30988BFF36F8F70475C0000200D
:10027000EFF30580704700000648804706480047B6
:10028000FEE7FEE7FEE7FEE7FEE7FEE7FEE7FEE746
:10029000FEE7FEE7BD210008AD01000840EA0103CA
:1002A0009B0703D009E008C9121F08C0042AFAD22C
:1002B00003E011F8013B00F8013B521EF9D27047F0
:1002C000D2B201E000F8012B491EFBD27047002298
:1002D000F6E710B513460A4604461946FFF7F0FF45
:1002E000204610BD421C10F8011B0029FBD1801ACA
:1002F00070472DE9FE4F804681EA0300C00F0C468F
:10030000009021F0004123F00045B8EB0200A94124
:1003100005D24046214690461C460B46024623F035
:100320000040104347D0270DC7F30A00C3F30A511A
:100330000290401A019040286BDAC3F3130040F496
:10034000801B0098924620B10023D2EB030A63EB96
:100350000B0B01985946C0F14002504600F03CF9A1
:1003600006460D4650465946019A00F044F910EBF6
:1003700008006141002487EA115284EAE7731A43B6
:1003800040D0009A62B3019A012A4FEA075215DC65
:10039000001B61EB02014FF0004202EA0752CDE977
:1003A0000042001C41F5801132462B4600F044F912
:1003B00003B0BDE8F08F40462146F9E7001B61EB32
:1003C0000201001C41F5801300185B412018A2F5C2
:1003D000001747EB030140EAD570B6196D4111E0F3
:1003E0006D084FEA360645EAC0754FEA0752001B12
:1003F00061EB0201001C41F5801149084FEA300011
:100400000019514132462B4603B0BDE8F04F00F0D1
:1004100004B90098012240000023D0EB020263EBF4
:10042000E073009821464FEAE074B8EB000061EBFE
:100430000401E9E783F000435BE781F0004158E7FE
:100440002DE9FE4F81EA030404F0004421F000414D
:1004500000944FF0000B23F0004350EA01045ED0FB
:1004600052EA03045BD0C3F30A54C1F30A552C4487
:10047000A4F2F3340194A0FB0254C1F3130141F43C
:100480008011C3F3130343F4801301FB024400FB08
:10049000034E840A970A44EA815447EA8357A4FB2F
:1004A000076802958D0A05FB07854FEA932C04FB2C
:1004B0000C542705029D4FEA065847EA1637B5EB5C
:1004C00008056EEB070C870E920E47EA811742EA89
:1004D0008312A7FB0201B6EB0B0164EB00042B0DAA
:1004E00043EA0C335E1844EB1C50DA465146E7FBF6
:1004F0000201C5F313044FEA0B3343EA14534FEAE6
:100500000432019C43EA0603A4F10C040294009C0B
:10051000CDE900B400F090F803B0BDE8F08F002002
:100520000146F9E700F0004230F000400AD0C10D6A
:1005300001F56071C0F3160042EA0151C20840079C
:1005400011437047002001467047000030B5041E7B
:1005500071F1000404DB4FF00044404264EB010100
:10056000141E73F1000405DB1C464FF00043524299
:1005700063EB04038B4208BF824230BD30B5041EDA
:1005800071F1000404DB4FF00044404264EB0101D0
:10059000141E73F1000405DB1C464FF00043524269
:1005A00063EB0403994208BF904230BD30B50B465F
:1005B000014600202022012409E021FA02F59D4293
:1005C00005D303FA02F5491B04FA02F52844151E67
:1005D000A2F10102F1DC30BD202A04DB203A00FA4E
:1005E00002F1002070479140C2F1200320FA03F38A
:1005F000194390407047202A06DBCB17203A41FA76
:1006000002F043EAE07306E041FA02F3D040C2F19F
:100610002002914008431946704710B5141E73F12B
:10062000000408DA401C41F1000192185B411A43B2
:1006300001D120F0010010BD2DE9F04D92469B46FE
:1006400011B1B1FA81F202E0B0FA80F220329046A4
:10065000FFF7C2FF04460F4640EA0A0041EA0B01D9
:1006600053465A46084313D0114653EA010019D0A5
:10067000C8F14002504600F03FF805460E4650468D
:1006800059464246FFF7A8FF084305D0012004E081
:1006900020463946BDE8F08D0020054346EAE07665
:1006A0002C4337430A986305E40AA0EB08000022B4
:1006B000FD0A44EA47540A3002D500200146E9E722
:1006C000010510196941DDE9084500196941BDE8D6
:1006D000F04DA2E7064C074D06E0E06840F001034C
:1006E00094E8070098471034AC42F6D3FFF762FD58
:1006F000708E0008908E0008202A04DB203A21FA30
:1007000002F00021704721FA02F3D040C2F120022A
:10071000914008431946704770B58C1810F8015B7A
:1007200015F0070301D110F8013B2A1106D110F88A
:10073000012B03E010F8016B01F8016B5B1EF9D18E
:100740002B0705D40023521E0DD401F8013BFAE714
:1007500010F8013BCB1A921C03E013F8015B01F87F
:10076000015B521EF9D5A142D8D3002070BD000014
:100770002DE9F04104460D46154800F0F3FF074609
:10078000134E00F0D3FE002000F020FEF32000F016
:1007900017FE00BF0221384600F02AFE0928F9D1D1
:1007A0000AE02178304600F09BFE092802D00020A4
:1007B000BDE8F081761C641C281EA5F10105F0D16E
:1007C000012000F003FE00F081FE0220F0E70000AF
:1007D00000001E0800BFFEE72DE9F0418AB0044684
:1007E0000D4617461E46DDF840800121082001F025
:1007F00065F90121480601F071F90121480601F06F
:100800007DF900214FF0007001F078F90320089085
:1008100002208DF8240000208DF8260001208DF89C
:10082000270003208DF8250008A92C4800F022FF9E
:1008300009220021294800F065FF092201212748EB
:1008400000F060FF01208DF81B0000208DF81C00D7
:100850008DF81A008DF81F008DF81D008DF81E0010
:100860008DF81640ADF814808DF818708DF8196069
:100870008DF8175005A91A4800F05DFA0020ADF870
:100880000C008DF80F0001208DF810000020ADF84D
:100890000400ADF80600ADF80800ADF80A008DF8C8
:1008A0000E0001208DF8110001A800F027F90122A7
:1008B00002210B4800F036FA14208DF800000420C5
:1008C0008DF8010000208DF8020001208DF8030052
:1008D000684601F06FF80AB0BDE8F081000C0240F4
:1008E0000064004010B50221084800F08BF960B1A7
:1008F0000221064800F0AEF8054A0021034800F046
:10090000A4FA0349014801F01BFA10BD006400403D
:10091000001A02202DE9F0418AB004460D46174620
:100920001E46DDF840800121022001F0C7F80121B8
:10093000880601F0D3F80121880601F0DFF80021D4
:100940004FF0806001F0DAF84FF440500890022038
:100950008DF8240000208DF826008DF82700032054
:100960008DF8250008A92D4800F084FE09220C21ED
:100970002A4800F0C7FE09220D21284800F0C2FED7
:1009800001208DF81B0000208DF81C008DF81A0046
:100990008DF81F008DF81D008DF81E008DF8164093
:1009A000ADF814808DF818708DF819608DF8175017
:1009B00005A91B4800F0BFF90020ADF80C008DF828
:1009C0000F0001208DF810000020ADF80400ADF8F4
:1009D0000600ADF80800ADF80A000E208DF80E00F4
:1009E00001208DF8110001A800F088F801220221F1
:1009F0000B4800F097F940208DF8000004208DF896
:100A0000010000208DF8020001208DF803006846E7
:100A100000F0D0FF0AB0BDE8F08100000004024001
:100A20000068004010B50221084800F0EBF860B102
:100A30000221064800F00EF8054A0021034800F0A4
:100A400004FA0349014801F07BF910BD0068004039
:100A5000141A0220B1F5007F3AD00FDC202928D0EB
:100A600006DC01291CD004291DD0082940D11DE035
:100A7000402921D0B1F5807F3AD126E0B1F5004F71
:100A800031D006DCB1F5806F25D0B1F5006F2FD1E4
:100A900024E0B1F5803F12D0B1F5003F28D111E03C
:100AA000154A826025E00822C26022E01022C2605E
:100AB0001FE0082202611CE01022026119E00822F6
:100AC000426016E01022426013E00422426010E00F
:100AD000042242600DE0042242600AE000228261AA
:100AE0000422426005E0002282610422426000E0AC
:100AF00000BF00BF704700000101010010B50021D8
:100B0000837A012202FA03F13D4A126842F001029F
:100B10003B4B1A603A4A1C3212688A43384B1C33EA
:100B20001A60027BCAB9364A0C3212688A43344BC7
:100B30000C331A604288C38842EA0343304A403289
:100B4000847A42F834300288838842EA03432C4A8C
:100B50004032847A02EBC4025360027B012A19D12D
:100B6000274A0C3212680A43254B0C331A6042881C
:100B7000038842EA0343224A4032847A42F83430FE
:100B8000C288838842EA03431D4A4032847A02EBDA
:100B9000C4025360C27A3AB9194A121D12688A43D4
:100BA000174B1B1D1A6006E0154A121D12680A43F6
:100BB000134B1B1D1A60028932B9114A1432126894
:100BC0008A430F4B14331A600289012A06D10C4A5A
:100BD000143212680A430A4B14331A60427B012A0A
:100BE00006D1074A1C3212680A43054B1C331A60AF
:100BF000034A126822F00102014B1A6010BD000086
:100C00000066004070B504460D4600266069284025
:100C1000002871D0B5F5807F5CD010DC082D35D070
:100C200006DC012D20D0022D24D0042D72D127E026
:100C3000102D31D0202D35D0402D6BD138E0B5F5B9
:100C4000004F60D009DCB5F5007F49D0B5F5806F65
:100C50004CD0B5F5006F5DD14FE0B5F5803F2DD09C
:100C6000B5F5003F56D12FE0A0682D4900F0F8F906
:100C7000064651E0E068032100F0F2F906464BE039
:100C8000E068082100F0ECF9064645E0E068102134
:100C900000F0E6F906463FE02069032100F0E0F9A4
:100CA000064639E02069082100F0DAF9064633E00B
:100CB0002069102100F0D4F906462DE06068082173
:100CC00000F0CEF9064627E06068102100F0C8F970
:100CD000064621E0A069012100F0C2F906461BE0AA
:100CE000A069022100F0BCF9064615E0A0690421C4
:100CF00000F0B6F906460FE00FE0A069702100F0A1
:100D0000AFF9064608E06068042100F0A9F906463C
:100D100002E0FFE7002600BF00E00026304670BD7D
:100D2000010101001AB143690B43436102E04369C9
:100D30008B434361704730B502460020002314689E
:100D400024F002041460146844F00104146000E00C
:100D50005B1C546804F001041CB94FF6FF74A342F5
:100D6000F6D1546804F001040CB900206CE08C79D1
:100D7000012C04D1146844F08004146003E014686A
:100D800024F080041460CC79012C04D1146844F060
:100D90004004146003E0146824F0400414600C7AEA
:100DA000012C04D1146844F02004146003E014689A
:100DB00024F0200414604C7A012C04D1146844F00F
:100DC0001004146003E0146824F0100414608C7A9A
:100DD000012C04D1146844F00804146003E0146882
:100DE00024F008041460CC7A012C04D1146844F077
:100DF0000404146003E0146824F0040414608C7884
:100E0000A407CD7844EA05640D7944EA05444D7998
:100E100044EA05540D886D1E2C43D461146824F0F7
:100E200001041460002300E05B1C546804F001041A
:100E30001CB14FF6FF74A342F6D1546804F00104CC
:100E40000CB1002000E0012030BD10B500F5D873D2
:100E500003EB01131B6803F004031372137A53B9F5
:100E600000F5D87303EB01131B6840F2FF7404EA2A
:100E70005353136009E000F5D87303EB01131B68AB
:100E80006FF0604404EAD303536000F5D87303EBBA
:100E900001131B6803F00203537200F5D87303EBD0
:100EA00001135B6803F00F03937200F5D87303EB33
:100EB00001135B681B0AD37400F5D87303EB0113AD
:100EC0009B68D37200F5D87303EB01139B681C0A6F
:100ED000147300F5D87303EB01139B681C0C547357
:100EE00000F5D87303EB01139B681B0E937300F599
:100EF000D87303EB0113DB68D37300F5D87303EBEE
:100F00000113DB681C0A147400F5D87303EB01139A
:100F1000DB681C0C547400F5D87303EB0113DB6819
:100F20001B0E937421B9C36843F02003C36003E030
:100F3000036943F02003036110BD10B50246002091
:100F4000936803F08063B3F1806F00D110E0936881
:100F500003F00063B3F1006F01D1012008E0936852
:100F600003F08053B3F1805F01D1022000E0042040
:100F7000042874D002F5C07303EB00131B6803F060
:100F8000010402F5C07303EB00131C600B7A7BB9FC
:100F90004B7A0C8843EA445302F5C07404EB001406
:100FA0002468234302F5C07404EB0014236010E0AE
:100FB0000B7A4C6843EAC4034C7A234302F5C074AD
:100FC00004EB00142468234302F5C07404EB0014FE
:100FD00023608B7A03F00F038B7202F5C07303EB6F
:100FE00000135B6823F00F0402F5C07303EB0013DA
:100FF0005C6002F5C07303EB00135B688C7A2343DB
:1010000002F5C07404EB001463608B7B1C064B7B01
:1010100044EA03440B7B44EA0323CC7A234302F5DE
:10102000C07404EB0014A3608B7C1C064B7C44EA68
:1010300003440B7C44EA0323CC7B234302F5C074B6
:1010400004EB0014E36002F5C07303EB00131B68AC
:1010500043F0010402F5C07303EB00131C6010BDE4
:101060000246002002EA01030BB1012000E000204B
:10107000704700000246094B9A4201D2084801E03D
:101080000648103801F000531BB1064B0B40C360FB
:1010900002E0044B0B408360704700001064024084
:1010A000006002407D0F7D0F21B1026842F0010215
:1010B000026003E0026822F0010202607047000053
:1010C000016821F00101016000210160416081603F
:1010D000C1600161212141614A49884204D13D2119
:1010E000484A103A91608CE046491831884205D14F
:1010F0004FF47461434A103A916082E041493031C3
:10110000884205D14FF474113E4A103A916078E05C
:101110003C494831884205D14FF07461394A103A50
:1011200091606EE037496031884204D13649354AD2
:10113000103AD16065E033497831884204D13349AF
:10114000304A103AD1605CE02E499031884204D197
:101150002F492C4A103AD16053E02A49A8318842DD
:1011600005D14FF03D51274A103AD16049E0294955
:10117000884204D13D21274A083A116041E02549BF
:101180001831884205D14FF47461224A083A11603F
:1011900037E020493031884205D14FF474111D4A9F
:1011A000083A11602DE01B494831884205D14FF0C3
:1011B0007461184A083A116023E016496031884288
:1011C00004D11149134A121F11601AE011497831F4
:1011D000884204D10D490F4A121F116011E00D49D8
:1011E0009031884204D10A490A4A121F116008E06E
:1011F0000849A831884204D14FF03D51054A121FD9
:1012000011607047106002403D000020400F002038
:1012100000003D201064024021B1026842F48022A7
:10122000026003E0026822F480220260704722B16B
:10123000036843F40023036003E0036823F40023FE
:101240000360016170470146486880B270470146FB
:1012500000200A6802F400220AB1012000E0002008
:101260007047000010B500220268134B1A40CC688A
:101270000B6823434C6923438C692343CC69234384
:101280000C6A23434C6A23438C6A23434C6B2343ED
:101290008C6B23431A430260426922F00702D1E9B2
:1012A0000B3423431A4342610B6943604B688360EC
:1012B0008B68C36010BD00003F801CF04160704728
:1012C0007047000010B5042000F024F8012810D168
:1012D0000A2002F043FD0421084800F036FA0128F4
:1012E00007D1074908720C210548FFF741FA054963
:1012F0000870042000F008F810BD0000000402404F
:10130000281B0220DC000020014908607047000013
:10131000143C014001460020034A12680A400AB109
:10132000012000E000207047143C014000212349C7
:101330008279002A3AD00A46126803689A430B461B
:101340001A600A1D126803689A430B1D1A6002791D
:1013500011440A6803681A430A60184A083212687E
:1013600003689A43154B08331A601A1D1268036804
:101370009A43124B0C331A604279102A0ED11A1F6D
:10138000126803681A430D4B08331A601A1D12685D
:1013900003681A43094B0C331A600DE00749427980
:1013A00011440A6803681A430A6005E0027911448F
:1013B0000A6803689A430A6070470000003C0140D5
:1013C00001490860704700000C3C024030B10749F9
:1013D000096841F48061054A116005E00349096824
:1013E00021F48061014A116070470000003C024016
:1013F00070B504460A460026092502B909E0012A0B
:1014000001D1160205E0022A01D1160201E04FF4D3
:10141000407600F09DF80546092D28D11548006852
:1014200020F44070134908600846006830430860A3
:101430000846006820F0F80008600846006844F09C
:10144000020108430B4908600846006840F48030F8
:10145000086000F07DF805460648006820F00200AC
:10146000044908600846006820F0F8000860284633
:1014700070BD0000103C024009201349096801F4C6
:101480008031B1F5803F01D101201CE00E4909688F
:1014900001F0100109B1062015E00B49096801F4BB
:1014A000807109B102200EE00749096801F0E001EE
:1014B00009B1072007E00449096801F0020109B1F8
:1014C000082000E0092070470C3C024003480068F7
:1014D00040F000400149086070470000103C0240A5
:1014E00030B502460C46092500F032F80546092DB4
:1014F00017D10D48006820F440700B490860084679
:10150000006808600846006840F001000860147038
:1015100000F01EF805460448006820F0010002496A
:101520000860284630BD0000103C024005480068B5
:1015300000F0004028B1044802490C390860034813
:1015400008607047103C024023016745AB89EFCD2E
:1015500008B509200090FFF78FFF009002E0FFF729
:101560008BFF00909DF800000128F8D09DF8000046
:1015700008BD00001CB50121084600F09FFA0121BA
:10158000022000F09BFA0121042000F097FA0121CB
:10159000102000F093FA0121202000F08FFA0121A1
:1015A000080200F08BFA3020009001208DF8040032
:1015B0008DF8070000208DF806008DF805006946BB
:1015C000264800F057F83021244800F0C9F80320DD
:1015D00000906946224800F04DF80321204800F0B1
:1015E000BFF83F20009069461E4800F043F83F21B5
:1015F0001C4800F0B5F841F27000009069461A48A6
:1016000000F038F841F27001174800F0A9F840F2F4
:10161000034000906946154800F02CF840F2034161
:10162000124800F09DF84FF4007000906946104891
:1016300000F020F84FF400710D4800F091F80420FC
:10164000009000208DF804008DF8070069460448DA
:1016500000F010F800F084F91CBD0000000002400A
:101660000004024000080240001002400014024042
:1016700000200240F0B50A4600210023002400BFEC
:101680003DE0012505FA01F3156805EA03049C42D3
:1016900034D105684F000326BE40B5430560157977
:1016A0004E00B5400668354305601579012D02D01E
:1016B0001579022D16D185684F000326BE40B5432B
:1016C000856055794E00B54086683543856045682C
:1016D00001268E40B5434560456896798E40B6B286
:1016E00035434560C5684F000326BE40B543C5601D
:1016F000D5794E00B540C6683543C560491C1029F0
:10170000BFD3F0BDF0B5002300244D07ED0E02FA63
:1017100005F3CE1000F1200555F826504E07F70EC0
:101720000F26BE40B543CF1000F1200646F82750E3
:10173000CE1000F1200555F8265045EA0304CE10DE
:1017400000F1200545F82640F0BD0246002013694F
:101750000B400BB1012000E000207047418370472F
:1017600001837047014600205C4A914203D2B1F1E7
:10177000006F00D3B0E05A4A914204D2574A9142D6
:1017800001D30820A8E0574A914204D2544A91421A
:1017900001D31020A0E0544A914204D2514A914210
:1017A00001D3182098E0514A914204D24E4A914206
:1017B00001D3202090E04E4A914204D24B4A9142FC
:1017C00001D3282088E04B4A914204D2484A9142F2
:1017D00001D3302080E0484A914204D2454A9142E8
:1017E00001D3382078E0454A914204D2424A9142DE
:1017F00001D3402070E0424A914204D23F4A9142D4
:1018000001D3482068E03F4A914204D23C4A9142C9
:1018100001D3502060E0B1F1016F04D2394A914206
:1018200001D3582058E0384A914204D2B1F1016FF7
:1018300001D3802050E0354A914204D2324A91428D
:1018400001D3882048E0324A914204D22F4A914283
:1018500001D3902040E02F4A914204D22C4A914279
:1018600001D3982038E02C4A914204D2294A91426F
:1018700001D3A02030E0294A914204D2264A914265
:1018800001D3A82028E0264A914204D2234A91425B
:1018900001D3B02020E0234A914204D2204A914251
:1018A00001D3B82018E0204A914204D21D4A914247
:1018B00001D3C02010E01D4A914204D21A4A91423D
:1018C00001D3C82008E01A4A914204D2174A914233
:1018D00001D3D02000E0D82070470000004000086D
:1018E0000080000800C00008000001080000020895
:1018F00000000408000006080000080800000A08AC
:1019000000000C0800000E080040100800801008BD
:1019100000C01008000011080000120800001408A0
:10192000000016080000180800001A0800001C0833
:1019300000001E08014800687047000048000020B1
:1019400005480068401C0449086008460068401CBF
:1019500008B90020086070474800002000BFFEE77B
:101960000EB50121880300F0D9F80221012000F012
:101970003BFB08208DF8080002208DF809008DF847
:101980000A0001208DF80B0002A800F013F80420D3
:10199000009000208DF8040008208DF8050001203B
:1019A0008DF806006846FFF7C1FC0EBD00BFFEE7DC
:1019B0007047000070B5002100230F22C4781CB3CB
:1019C000174C246804F4E064C4F5E064C4F3072110
:1019D000C1F10404E3B20A4144789C40E1B2847846
:1019E000144021430C07210E0E4C057861550478F4
:1019F00004F01F050124AC4005786D11AD0005F120
:101A0000E025C5F8004109E0047804F01F05012431
:101A1000AC40054D0678761145F8264070BD0000B3
:101A20000CED00E000E400E080E100E00249014349
:101A3000024A1160704700000000FA050CED00E05A
:101A40002DE9F0412DED048B0446B0EE408AF0EE16
:101A5000608AB0EE419A0E4617461D46C5B9154834
:101A6000E063154820643A463146B0EE491AF0EE7C
:101A7000680AB0EE480A2046E36B9847B0EE491A70
:101A8000F0EE680AB0EE480A2046216C88470CE068
:101A90000848E0633A463146B0EE491AF0EE680A6B
:101AA000B0EE480A2046E36B9847BDEC048BBDE8D6
:101AB000F0810000F74F00081150000829B1064AD4
:101AC00012680243044B1A6004E0034A126882431E
:101AD000014B1A60704700003038024029B1064AB5
:101AE00012680243044B1A6004E0034A12688243FE
:101AF000014B1A60704700004038024029B1064A85
:101B000012680243044B1A6004E0034A12688243DD
:101B1000014B1A60704700002038024029B1064A84
:101B200012680243044B1A6004E0034A12688243BD
:101B3000014B1A60704700004438024029B1064A40
:101B400012680243044B1A6004E0034A126882439D
:101B5000014B1A607047000024380240F0B50021A4
:101B600000220024022500260223324F3F6807F09E
:101B70000C0121B1042905D0082937D105E02E4FE9
:101B8000076036E02D4F076033E02A4F3F1F3F6864
:101B9000C7F38056274F3F1F3F6807F03F036EB1E2
:101BA000264FB7FBF3F7DFF88CC0ACF1040CDCF880
:101BB00000C0CCF3881C07FB0CF40CE01E4FB7FBF5
:101BC000F3F7DFF870C0ACF1040CDCF800C0CCF324
:101BD000881C07FB0CF4174F3F1F3F68C7F30147F2
:101BE0007F1C7D00B4FBF5F7076002E0124F076031
:101BF00000BF00BF0F4F3F6807F0F0010909104F09
:101C00007A5C0768D74047600A4F3F6807F4E051A5
:101C1000890A0B4F7A5C4768D7408760054F3F6859
:101C200007F46041490B064F7A5C4768D740C760AC
:101C3000F0BD0000083802400024F400001BB7008B
:101C40004C00002021B1028842F04002028004E0F2
:101C500002884FF6BF731A400280704700B587B004
:101C600001212020FFF72AFF01210805FFF756FF79
:101C7000052207212148FFF745FD052208211F48BD
:101C8000FFF740FD052209211C48FFF73BFD4FF4FB
:101C90006070059002208DF8180003208DF819005F
:101CA00000208DF81A008DF81B0005A91348FFF7D6
:101CB000E1FC0020ADF800004FF48270ADF80200A6
:101CC0000020ADF80400ADF80600ADF808004FF4B0
:101CD0000070ADF80A001820ADF80C000020ADF837
:101CE0000E000A20ADF810006946054800F00AF819
:101CF00001210348FFF7A6FF07B000BD0014024012
:101D00000050014010B50022028802F441520B88B5
:101D10004C8823438C882343CC8823430C8923435A
:101D20004C8923438C892343CC8923431A43028063
:101D3000838B4FF2FF74234083830B8A038210BD91
:101D400070B505460C469D48854270D12068A0F2CA
:101D50000120062868D2DFE800F003040535363795
:101D600000BF00BF2078401E95490870954809784B
:101D700000EB411081699348914A127800EB4210C0
:101D80008069401C8F4A8E4B1B7802EB4312906196
:101D9000322908D88B498A4A127801EB4210214631
:101DA00002F038FC07E08749854A127801EB4210BF
:101DB000214602F013FA8249097801F10D0002F080
:101DC00075FA32E000BF00BF2078001F7E4908701E
:101DD0007E48097800EB411081697C487A4A127884
:101DE00000EB42108069401C784A774B1B7802EB6D
:101DF00043129061322908D87449734A127801EB72
:101E00004210214602F006FC07E070496E4A127843
:101E100001EB4210214602F0E1F96B49097801F12A
:101E2000120002F043FA00E000BFC6E0FFE740F214
:101E300002322068811A904264D008DCA0F20120AE
:101E400050B1012809D0B0F5807F79D135E0012962
:101E500078D00229F9D199E000BF2078401E5C4972
:101E600008705C48097800EB411081695948584A6C
:101E7000127800EB42108069401C564A544B1B7884
:101E800002EB43129061322908D85249504A127825
:101E900001EB4210214602F0BDFB07E04D494C4AE0
:101EA000127801EB4210214602F098F9484909786E
:101EB00001F1100002F0FAF97EE04748007B464944
:101EC000C97A40EA012000B2444908804248817B37
:101ED000407B41EA002000B2404948803E48017CF6
:101EE000C07B41EA002000B23C4988803A48817CAE
:101EF000407C41EA002000B23849C880152002F039
:101F0000D5F959E03448C07A344908723248007B28
:101F100048723148817B407B41EA00202F4948814B
:101F20002D48C17B2D4881742B48017C2B48C174FE
:101F30002948407C2A490870152002F0B7F93BE097
:101F400039E0FFE72448007B2349C97A40EA0120B1
:101F500000B2224988812048817B407B41EA0020F1
:101F600001B21E48C1811C48017CC07B41EA0020AF
:101F700001B21A4801821848817C407C41EA002065
:101F800016498882152002F091F915E01248807BED
:101F900001061148407B41EA00410F48007B41EABD
:101FA00000200D49C97A08430E49C1F89C0115204B
:101FB00002F07CF900E000BF00BF70BD006400408B
:101FC000E0000020281A0220E1000020C81A0220A8
:101FD000E2000020881A0220141A02205009022070
:101FE000C8040020441B022030B500228B071C0FC0
:101FF0000F2303FA04F20B4B8C1053F82430934355
:10200000084C8D1044F8253023468C1053F82430AA
:102010008C07240F00FA04F42343024C8D1044F87B
:10202000253030BD083801400CB5002001900090EB
:102030004148006840F480303F49086000BF3E4896
:10204000006800F4003000900198401C0190009856
:1020500018B90198B0F5A04FF1D13748006800F4E5
:10206000003010B10120009001E0002000900098A5
:10207000012860D130484030006840F080502E493F
:10208000403108602D48006840F440402B4908600A
:102090002948083000682849083108600846006867
:1020A00040F4004008600846006840F4A050086012
:1020B0002348091F0860081F006840F08070091F4E
:1020C000086000BF1C48006800F000700028F9D0CC
:1020D0001A48006840F480301849086000BF17486B
:1020E000406800F480300028F9D01448006840F4BB
:1020F00000301249086000BF1048406800F400300A
:102100000028F9D040F205700E4908600A480830EE
:10211000006820F00300084908310860084600689C
:1021200040F00200086000BF03480830006800F07B
:102130000C000828F8D10CBD0038024000700040A7
:10214000062D4008003C0240042808D14FF0E02151
:10215000096941F004014FF0E022116107E04FF0FE
:10216000E021096921F004014FF0E022116170477C
:1021700010B506F049FA012801D005F0BDFD10BDEB
:1021800010B504466FF00400FFF7DEFFE11704EB23
:102190005171C1F3C701074A11701046007800EB76
:1021A0004001C1EBC0104FF6FF7101EAC0000249C7
:1021B000088010BDD8000020DA00002010B51548B6
:1021C000006840F47000134908601348006840F04C
:1021D00001001149086000200F49083108600E48CD
:1021E00000680E4908400C4908600D48091D086048
:1021F000081F006820F48020091F0860002006499D
:102200000C310860FFF710FF4FF000600149803982
:10221000086010BD88ED00E000380240FFFFF6FEC8
:10222000103000241CB50548022100238022CDE98E
:10223000001003A1054806F093F81CBD140000200F
:1022400073746172745F7461736B0000FD6A0008DF
:1022500010B50121054800F0AAF808B1FFF770FB9E
:102260000121024800F094F810BD00000008004071
:1022700030B58BB005460C4601210802FFF71EFC65
:1022800001210820FFF72AFC022200211F48FFF746
:1022900039FA0120099002208DF8280001208DF8DC
:1022A0002B0000208DF82A0003208DF8290009A9B1
:1022B0001648FFF7DFF90795A0B2ADF81800002027
:1022C000ADF82000ADF81A0006A9114800F0D4F8C6
:1022D0006020ADF804000020ADF810000120ADF83A
:1022E00006004FF47A70039001A9094800F07AF8CB
:1022F0000821074800F0B2F80121054800F00AF86B
:102300000121034800F047F80BB030BD0020024027
:10231000000C004021B1028842F08002028004E0FB
:1023200002884FF67F731A40028070477FB50546DA
:102330000C4601210420FFF7D1FB0295ADF80440C3
:102340000020ADF80C00ADF8060001A90F4800F020
:1023500093F8012211460D4800F03AF801210B488C
:1023600000F016F81E208DF8000000208DF8010006
:102370008DF8020001208DF803006846FFF71AFB74
:102380000121024800F007F87FBD0000000800406E
:10239000CA430282704721B1028842F001020280E2
:1023A00004E002884FF6FE731A400280704730B591
:1023B0000246002000230024158A05EA01039589BE
:1023C00005EA010413B10CB1012000E0002030BD8A
:1023D0001AB183890B43838102E083898B43838114
:1023E0007047000070B5002200230024058C4EF6D3
:1023F000FF7635400584038C8488828B48F6FF7510
:102400002A404FF6FF452A400D884FF6FF7606EA30
:1024100005252A434DF6FF752B408D8906EA0535C3
:102420002B434D8806EA05352B430A4DA84202D0BE
:10243000094DA84208D14BF6FF752C400D8A4FF686
:10244000FF7606EA85152C43848082838D680564B7
:10245000038470BD00000140000401400A460021D1
:10246000818B4FF2FF7319404FF6FF7303EA02238B
:10247000194381837047000000220288184B98425C
:102480000ED0184B98420BD0B0F1804F08D0164BAD
:10249000984205D0154B984202D0154B984204D172
:1024A0004FF68F731A404B881A43124B984207D04D
:1024B000114B984204D04FF6FF431A400B891A4340
:1024C00002804B68C3620B880385054B984202D09B
:1024D000044B984201D18B7A038601238382704793
:1024E00000000140000401400004004000080040DA
:1024F000000C0040001000400014004000B587B000
:1025000001211020FFF7DAFA0121C807FFF7E6FAE8
:102510000121C807FFF7F2FA00214FF00040FFF752
:10252000EDFA082200212748FFF7ECF808220121E4
:102530002448FFF7E7F80320059002208DF81800E3
:1025400000208DF81A008DF81B0003208DF819006B
:1025500005A91C48FFF78EF81B4800F06BFB4FF4F1
:10256000E13001900020ADF80800ADF80A00ADF8A8
:102570000C000C20ADF80E000020ADF8100001A9F1
:10258000114800F02BFC10210F4800F025FB012220
:1025900040F224410C4800F0FCFB01210A4800F005
:1025A00033FB53208DF8000005208DF8010000203A
:1025B0008DF8020001208DF803006846FFF7FAF954
:1025C00007B000BD00100240007C004000B587B09D
:1025D00001210220FFF772FA01211020FFF79EFA75
:1025E00001211020FFF7AAFA00211020FFF7A6FA18
:1025F000072211462848FFF785F880200590022021
:102600008DF8180000208DF81A0001208DF81B00AD
:1026100003208DF8190005A91F48FFF72BF81F4864
:1026200000F008FB1E4801900020ADF80800ADF84E
:102630000A004FF48060ADF80C000420ADF80E00E5
:102640000020ADF8100001A9144800F0C7FB0121DB
:10265000124800F0D9FA1021104800F0BDFA1021FC
:102660000E4800F0C2FA012240F224410B4800F06B
:1026700090FB25208DF8000005208DF8010000203A
:102680008DF8020001208DF803006846FFF792F9EB
:1026900000F008F807B000BD00040240001001403F
:1026A000A086010000B58FB001218805FFF706FA6A
:1026B000012240211F4800F0B3FA1F48FEF700FD39
:1026C0004FF0006000901B48001D01901B480290D5
:1026D0000020039024200490002005904FF4806097
:1026E00006900020079008904FF4807009904FF4F6
:1026F00040300A9000200B9003200C9000200D9099
:102700000E9069460C48FEF7ADFD00220B492431BE
:102710000948FEF78CFD01210748FEF77DFD0021E9
:102720000548FEF7C1FC01210348FEF7BDFC0FB0D0
:1027300000BD000000100140406402406609022014
:1027400010B510212B4800F0EDFA002850D040F2CF
:102750002441284800F0F3FA002849D0254800F029
:10276000A7FB2548FEF773FDE8B900212248FEF7D4
:102770009BFC2148FEF767FDC0F124001F4908803B
:1027800024211D48FEF79AFD1B48006840F40020F4
:10279000194908601A491848FEF76CFC01211648CF
:1027A000FEF782FC1CE001211348FEF77DFC154872
:1027B000FEF749FDC0F124001049088024210E488D
:1027C000FEF77CFD0C48006820F400200A490860F0
:1027D0000B490948FEF74EFC01210748FEF764FC4F
:1027E0001021044800F0F8F91021024800F0FDF92A
:1027F00010BD00000010014040640240DE000020D7
:10280000000030104060024000B587B00121082070
:10281000FFF754F901218804FFF760F901218804CA
:10282000FFF76CF900214FF48020FFF767F90722CA
:1028300008212948FEF766FF072209212648FEF7EE
:1028400061FF4FF44070059002208DF818000020C1
:102850008DF81A008DF81B0003208DF8190005A9CA
:102860001D48FEF707FF1D4800F0E4F94FF4E13082
:1028700001900020ADF80800ADF80A00ADF80C009A
:102880000C20ADF80E000020ADF8100001A913488F
:1028900000F0A4FA1021114800F09EF9012240F244
:1028A00024410E4800F075FA01210C4800F0ACF903
:1028B00027208DF8000005208DF8010000208DF8FC
:1028C000020001208DF803006846FFF773F800F05E
:1028D00007F807B000BD0000000C024000480040AF
:1028E00000B58FB001214805FFF7E8F8012240212B
:1028F0001E4800F095F91E48FEF7E2FB4FF000601D
:1029000000901A48001D01901A4802900020039080
:102910004FF480600490002005904FF48060069092
:1029200000200790089009904FF440300A90002052
:102930000B9003200C9000200D900E9069460C48DF
:10294000FEF790FC00220C490948FEF770FC0121BB
:102950000748FEF761FC00210548FEF7A5FB0121B1
:102960000348FEF7A1FB0FB000BD00000048004087
:1029700028600240D2090220D20D02201CB500209E
:1029800001901021164800F0CDF938B340F22441EF
:10299000134800F0D4F908B3114800F089FA102167
:1029A0000F4800F019F9162001F080FC0D4800686E
:1029B000A0B101A80023012202210090094800686B
:1029C00005F080FD019848B1019838B14FF0805072
:1029D00005490860BFF34F8FBFF36F8F1CBD000028
:1029E000004800403C00002004ED00E000B587B046
:1029F00001214020FFF762F801212020FFF78EF827
:102A000001218805FFF75AF801212020FFF796F8E9
:102A100000212020FFF792F8082209212948FEF71B
:102A200071FE08220E212748FEF76CFE4FF4844009
:102A3000059002208DF8180000208DF81A00012062
:102A40008DF81B0003208DF8190005A91D48FEF71D
:102A500011FE1D4800F0EEF84FF4E1300190002027
:102A6000ADF80800ADF80A00ADF80C000C20ADF888
:102A70000E000020ADF8100001A9134800F0AEF9D7
:102A80001021114800F0A8F8012240F224410E481C
:102A900000F07FF901210C4800F0B6F847208DF8CE
:102AA000000005208DF8010000208DF802000120B3
:102AB0008DF803006846FEF77DFF00F007F807B0C9
:102AC00000BD0000001802400014014000B58FB0A6
:102AD00001218805FEF7F2FF012240211E4800F087
:102AE0009FF81E48FEF7ECFA4FF0206000901A485D
:102AF000001D01901A480290002003904FF480605E
:102B00000490002005904FF480600690002007900C
:102B1000089009904FF440300A9000200B90032059
:102B20000C9000200D900E9069460C48FEF79AFB21
:102B300000220C490948FEF77AFB01210748FEF7FD
:102B40006BFB00210548FEF7AFFA01210348FEF7B1
:102B5000ABFA0FB000BD0000001401402864024031
:102B6000D2110220D21502201CB5002001901021A4
:102B7000164800F0D7F838B340F22441134800F06B
:102B8000DEF808B3114800F093F910210F4800F067
:102B900023F8172001F08AFB0D480068A0B101A8B6
:102BA00000230122082100900948006805F08AFCF2
:102BB000019848B1019838B14FF08050054908603C
:102BC000BFF34F8FBFF36F8F1CBD00000014014097
:102BD0004400002004ED00E001F40072B2F5007F33
:102BE00000D100BFCA430280704710B50022002305
:102BF00040F66A14A14200D100BF0A120124944099
:102C0000A3B2DC43048010BD21B1828942F400529A
:102C1000828104E082894DF6FF731A4082817047F9
:102C20001AB1838A0B43838202E0838A8B438382B7
:102C30007047000010B504463248844208D1012193
:102C40001020FEF77BFF00211020FEF777FF57E0F2
:102C50002D48844209D101214804FEF74FFF00218D
:102C60004FF40030FEF74AFF4AE02848844209D179
:102C700001218804FEF742FF00214FF48020FEF777
:102C80003DFF3DE02248844209D10121C804FEF7FE
:102C900035FF00214FF40020FEF730FF30E01D48E3
:102CA000844209D101210805FEF728FF00214FF4D5
:102CB0008010FEF723FF23E01748844208D101214A
:102CC0002020FEF73BFF00212020FEF737FF17E012
:102CD0001248844209D101218807FEF70FFF002125
:102CE0004FF08040FEF70AFF0AE00D48844207D10A
:102CF00001214005FEF702FF00216005FEF7FEFE00
:102D000010BD000000100140004400400048004099
:102D1000004C00400050004000140140007800408A
:102D2000007C004002460020B1F5007F00D100BFCA
:102D300013880B400BB1012000E00020704770B5F4
:102D40000246002400230025002040F66A16B14206
:102D500000D100BFC1F3421501F01F03012606FA9E
:102D600003F3012D02D19689334006E0022D02D1F2
:102D7000168A334001E0968A33400C12012606FA87
:102D800004F41688344013B10CB1012000E0002097
:102D900070BDF0B50346002400260025002040F653
:102DA0006A17B94200D100BF1846C1F3421401F0BE
:102DB0001F06012707FA06F5012C01D10C3004E0AB
:102DC000022C01D1103000E014301AB107682F43F3
:102DD000076002E00768AF430760F0BD2DE9FF47D9
:102DE00005460E460024A14600BFA046B08900B1AA
:102DF00000BF2C8A24F44054F08804432C82AC8910
:102E000041F20C608443B0883189084371890843DA
:102E10000443AC81AC8A24F44074B0890443AC828E
:102E20006846FEF79BFE2048854202D01F48854237
:102E300002D1DDF80C9001E0DDF80890A88900F4DB
:102E4000004040B109EBC90000EB091031684900AE
:102E5000B0FBF1F707E009EBC90000EB091031689E
:102E60008900B0FBF1F76420B7FBF0F00401200902
:102E7000642101FB1078A88900F4004040B13220A1
:102E800000EBC800B0FBF1F000F00700044308E0DD
:102E9000322000EB08106421B0FBF1F000F00F00CD
:102EA00004432C81BDE8FF8700100140001401405D
:102EB00001468888C0F30800704700BFFEE70000A5
:102EC0000FB4084B10B504A902AA039800F026F825
:102ED000044602A9002000F0FDF8204610BC5DF871
:102EE00014FB0000D53000082DED020B019820F0F6
:102EF000004001909DED000B02B0704702E008C851
:102F0000121F08C1002AFAD170477047002001E063
:102F100001C1121F002AFBD1704700002DE9FF4FAD
:102F20008BB09A460F460546002606E025280BD0B2
:102F300052460D9990476D1C761C28780028F5D1D3
:102F40000FB03046BDE8F08F0024A0460122604952
:102F500000E0044315F8013F203B02FA03F0084269
:102F6000F7D128782E2817D115F8010F44F0040462
:102F70002A280ED06FF02F022878A0F130010929FD
:102F80000AD808EB880102EB410100EB01086D1C37
:102F9000F2E757F8048B6D1C287869283ED006DCD0
:102FA0000028CDD063280BD0642804D136E07328E4
:102FB00010D075284BD052460D999047761C85E06D
:102FC00017F8040B8DF8000000208DF80100E94689
:102FD000012003E057F8049B4FF0FF3061074FF0EA
:102FE000000401D40AE0641C44450DDA8442FADB93
:102FF00019F804100029F6D106E0641C8442FCDBB9
:1030000019F804100029F8D1264404E019F8010B3E
:1030100052460D999047641EF8D257E001CF4FF009
:103020000A0B002802DA40422D2102E0210504D5D6
:103030002B218DF82410012103E0E10705D0202188
:10304000F7E70DF1200908910CE00021F9E701CF25
:103050004FF00A0BF9E75946FDF7A8FA01F13002E3
:1030600009F8012D0028F6D1ADEB090000F1200B85
:10307000600701D44FF00108D84502DDA8EB0B0032
:1030800000E000208046002406E009A85246005DCA
:103090000D999047641C761C08988442F5DB04E087
:1030A000302052460D999047761CB8F10001A8F1E6
:1030B0000108F5DC05E019F8010B52460D9990471F
:1030C000761CBBF10001ABF1010BF4DC6D1C34E7A5
:1030D000092801000A68531C0B6010707047D0ED7E
:1030E000000A00EE101AB8EEC00AF4EEC00AF1EEC3
:1030F00010FA05DD00EE101AB8EEC00A80ED000AE5
:10310000D0ED000A4A4200EE102AB8EEC00AF4EEF2
:10311000C00AF1EE10FA06D24A4200EE102AB8EECA
:10312000C00A80ED000A704770B505460C460026BF
:103130000DB1022C00D870BDA11E06480288284699
:1031400001F0E6F90646A01E2E54310A601E2954ED
:1031500000BFF0E77805002070B505460C46002654
:103160000DB1022C00DC70BD601E81B2FF2228462A
:1031700001F0E8F90646601E2E5400BFF3E77047E1
:103180007047000010B5FE48007900287ED0FD4849
:10319000007801287AD1FEF7CDFBFB490968401A77
:1031A0000A2808D9F648C06AB430F549486108468B
:1031B000006BB4388861FEF7BDFBF3490968401A1B
:1031C000C82807D90121F148FEF7C8FA1021F048B4
:1031D000FEF7C6FAFEF7AEFBEB490968401AB0F5F8
:1031E000C87F08D9E648C06A2D30E54948610846DD
:1031F000006B2D388861FEF79DFBE3490968401A92
:10320000B0F5E17F07D9DE48406BE249B1F90C1017
:103210000144DB48C161FEF78DFBDB490968401AB8
:10322000B0F5487F10D94FF48051D948FEF796FA8F
:103230000121D948FEF794FA0221D748FEF78EFA09
:103240000121D648FEF78CFAFEF774FBCE490968D7
:10325000401AB0F5487F08D9C948C06AB430C84997
:1032600048610846006BB4388861FEF763FBC649C5
:103270000968401AB0F57A7F07D91021C448FEF7D3
:103280006DFA0121C148FEF76BFA00E011E0FEF78C
:1032900051FBBD490968401AB0F5AF6F09D9FEF777
:1032A00049FBB94908600220B64908700020B449BA
:1032B0000871B348407900287ED0B24800780128D0
:1032C000FAD0B0480078022877D1FEF733FBAE4938
:1032D0000968401A0A2808D9A948C06AB430A84920
:1032E00048610846006BB4388861FEF723FBA649A5
:1032F0000968401A642807D90121A448FEF72EFA6C
:103300001021A348FEF72CFAFEF714FB9E4909682A
:10331000401AB0F5C87F08D99948C06A2D3098493D
:1033200048610846006B2D388861FEF703FB96491B
:103330000968401AB0F5167F10D901219648FEF7AA
:103340000DFA4FF480519248FEF70AFA0121934892
:10335000FEF704FA02219048FEF702FAFEF7EAFAB5
:1033600089490968401AB0F5487F07D98448416BFC
:103370008848B0F90E0001448148C161FEF7DAFACD
:1033800081490968401A40F24C41884210D94FF4F3
:1033900080517F48FEF7E2F901217F48FEF7E0F90E
:1033A00002217D48FEF7DAF901217C48FEF7D8F9C1
:1033B000FEF7C0FA744901E04CE12DE00968401ABB
:1033C000B0F5966F08D96E48C06AB4306C49486150
:1033D0000846006BB4388861FEF7ACFA6A490968A0
:1033E000401A40F21451884207D910216848FEF76C
:1033F000B5F901216548FEF7B3F9FEF79BFA62497A
:103400000968401AB0F5AF6F06D903205D4908700E
:10341000FEF790FA5C4908605A48007803287DD18D
:10342000FEF788FA58490968401A322807D901215D
:103430005648FEF793F910215548FEF791F9FEF72B
:1034400079FA51490968401A962808D94C48C06A47
:103450002D304B4948610846006B2D388861FEF7D6
:1034600069FA49490968401AB0F5AF7F10D90121BE
:103470004948FEF773F94FF480514548FEF770F95B
:1034800001214648FEF76AF902214348FEF768F930
:10349000FEF750FA3C490968401A40F2262188425A
:1034A00007D93748416B3B48B0F910000144344814
:1034B000C161FEF73FFA34490968401A40F2B6315B
:1034C000884210D94FF480513148FEF747F9012165
:1034D0003148FEF745F902212F48FEF73FF9012157
:1034E0002E48FEF73DF9FEF725FA27490968401AEC
:1034F00040F21A41884208D92148C06AB4302049B4
:1035000048610846006BB4388861FEF713FA1E491B
:103510000968401AB0F5966F09D900E017E010214C
:103520001B48FEF71BF901211848FEF719F9FEF7B1
:1035300001FA15490968401A40F24651884206D9F5
:10354000042010490870FEF7F5F90F4908600D488E
:10355000007804287ED1FEF7EDF90B490968401A7E
:10356000322807D901210948FEF7F8F81021084848
:10357000FEF7F6F8FEF7DEF903490968401A0FE096
:10358000E41C0220E4040020000500200014024096
:1035900000100240201D02200004024000080240EA
:1035A000962808D94F48C06A2D304E4948610846D0
:1035B000006B2D388861FEF7BDF94B490968401A48
:1035C000B0F5AF7F10D901214848FEF7C7F84FF496
:1035D00080514748FEF7C4F801214648FEF7BEF87F
:1035E00002214248FEF7BCF8FEF7A4F93E490968FB
:1035F000401A40F22621884207D93A48416B3E489A
:10360000B0F9120001443748C161FEF793F9364919
:103610000968401AB0F5487F10D94FF480513448FA
:10362000FEF79CF801213148FEF79AF802212F4855
:10363000FEF794F801212F48FEF792F8FEF77AF989
:1036400029490968401A40F2B63188420AD925480A
:10365000C06A00E027E0B430224948610846006BA8
:10366000B4388861FEF766F91F490968401A40F2CC
:103670001A41884207D910211D48FEF76FF8012131
:103680001E48FEF76DF8FEF755F917490968401A0C
:1036900040F27E41884206D9052019490870FEF79C
:1036A00049F9114908600F480079C8B90D484079B7
:1036B000B0B9FEF73FF90C490860012010490870C5
:1036C0000848416B0C48B0F9120001440548C1613B
:1036D000C06A2D30034948610846006B2D38886167
:1036E00010BD0000E41C0220000500200004024080
:1036F0000010024000080240201D02200014024079
:10370000E404002008B572E04FF0FF336A46F02170
:10371000002005F03DF80446012C63D1009800F02C
:103720001000C8B1324B93ED2D0ABDEEC00A10EE69
:10373000103A1AB22E4B93ED1C0ABDEEC00A10EEE1
:10374000103A19B22A4B93ED0B0ABDEEC00A10EEE7
:10375000103A18B202F0B6FD009800F02000C8B18F
:10376000244B93ED2D0ABDEEC00A10EE103A1AB2AA
:10377000204B93ED1C0ABDEEC00A10EE103A19B2B0
:103780001C4B93ED0B0ABDEEC00A10EE103A18B2B6
:1037900002F0ECFD009800F0400088B1164A92ED6E
:1037A0001C0ABDEEC00A10EE102A11B2124A92EDA8
:1037B0000B0ABDEEC00A10EE102A10B202F002FE93
:1037C000009800F0800068B100221146104602F017
:1037D00079FD00221146104602F0C8FD002108467E
:1037E00002F0F0FD002003F0FFFD044908608BE7C4
:1037F000741E02201C210220C81F0220E4000020A9
:1038000020B10122064B1A7100225A7119B101220E
:10381000034B5A7102E00022014B5A7170470000BD
:10382000E41C022010B52DED0A8B5C48007828B10D
:103830005A4840785949897888420AD04FF4FA703A
:103840005649C8804FF60C61544801814FF4FA7113
:103850004181002476E004EB0410514A02EB800021
:1038600090ED000A10EE101A0846FCF75BFE41ECE2
:103870001B0BB0EE4B0AF0EE6B0AFFF735FBB0EE18
:1038800040AAF0EE60AA9FED470B53EC102B51ECD1
:103890001A0BFCF7D5FD41EC180B04EB0410404A61
:1038A00002EB800090ED010A10EE101A0846FCF7BA
:1038B00039FE41EC1C0BB0EE4C0AF0EE6C0AFFF73F
:1038C00013FBB0EE40AAF0EE60AA04EB0410344AF9
:1038D00002EB800090ED000A10EE101A0846FCF78B
:1038E00021FE41EC1C0BB0EE4C0AF0EE6C0AFFF727
:1038F000FBFAB0EE40BAF0EE60BA53EC1A2B51EC82
:103900001B0BFCF797FD41EC190B53EC182BFCF744
:1039100035FE16D2254850F82400401C234941F8B2
:103920002400084650F82400FA280AD9012020492A
:10393000085500211948801D20F81410012017494E
:103940000870641C032C86DB19480078012822D1FA
:103950001748407801281ED11548807801281AD1CF
:10396000002016E0134901EB40110A690B492C3184
:1039700041F8202000210D4A42F820100C4A115431
:103980000121064A51700021117001210A4A11706B
:10399000401C0328E6DBBDEC0A8B10BDE41C0220B2
:1039A000741E0220000000606666E63F381D02209B
:1039B00004050020281A0220CA04002007480078C5
:1039C000032807D1064890F8680118B9044890F810
:1039D000B80008B1002070470120FCE7C8040020AF
:1039E000441B022010B10222034BDA7011B10122F4
:1039F000014BDA7070470000E41C022010B53C2136
:103A00002D48FCF764FC00202B4908704870012009
:103A100088702A490870002432E02949D1ED021A41
:103A2000B0EE611AD1ED011AF0EE610AD1ED001A83
:103A3000B0EE610A04EB0411224A02EB810000237C
:103A40004FF4FA7241F28831FDF7FAFF1C49D1EDCB
:103A5000051AB0EE611AD1ED041AF0EE610AD1ED4B
:103A6000031AB0EE610A04EB0411174A02EB81005D
:103A700000234FF4FA7242F21071FDF7E1FF641C6B
:103A8000032CCADB4FF43470104908804000488092
:103A900088804010C880002008814FF4347048812D
:103AA000888100210948C1814FF4AF6101824FF440
:103AB0003471418210BD0000E41C0220E4040020A7
:103AC000E8040020A81D0220741E0220201D0220F0
:103AD00008B5FFE04FF0FF336A464FF480710020D5
:103AE00004F056FE0546012D7ED1009800F480704A
:103AF000002879D0002432E07749D1ED021AB0EEE7
:103B0000611AD1ED011AF0EE610AD1ED001AB0EEA2
:103B1000610A04EB0411714A02EB810000234FF4A7
:103B2000FA7241F28831FDF78BFF6B49D1ED051A2E
:103B3000B0EE611AD1ED041AF0EE610AD1ED031A6C
:103B4000B0EE610A04EB0411654A02EB8100002328
:103B50004FF4FA7242F21071FDF772FF641C032CED
:103B6000CADB60480078032823D15F4880780128A9
:103B70001FD15E48407810B900205D4908705C484C
:103B80000078052813D2DFE800F00306090C0F00C7
:103B9000FFF748FE0CE002F041FC09E0FFF7F2FA03
:103BA00006E0FFF7EDFA03E0FFF7E9FA00E000BFF7
:103BB00003E000204D49087148714C4840784B495A
:103BC0008870FFF7FBFE10B147484078F0B94748CE
:103BD0004078012810D14548C06A444948610846E8
:103BE000016B8161406B00E06FE04249B1F90A105E
:103BF000411A3E48C16109E0002005E000223B492E
:103C0000891D21F81020401C0328F7DB002453E015
:103C10003649143151F8241001EE101AB8EEC11AC9
:103C2000F0EE410A344901EB441191ED041AB8EE6B
:103C3000C11AB0EE410A04EB0411284A02EB8100DC
:103C400001F088F929484078D8B92849891D31F907
:103C5000141001EE101AB8EEC11AF0EE410A234911
:103C60000C3131F9141001EE101AB8EEC11AB0EE91
:103C7000410A04EB04111A4A02EB810001F06AF9CF
:103C800019E004EB0411154A02EB810191ED0B1AC6
:103C9000F0EE410A15490C3131F9141001EE101AF9
:103CA000B8EEC11AB0EE410A04EB04110C4A02EB63
:103CB000810001F04FF9641C032CA9DB00230122D1
:103CC00010210E48006804F07BFB002003F08CFB01
:103CD0000B490860FEE60000E8040020A81D022051
:103CE000741E0220C8040020841D0220E41C02204F
:103CF000CA040020201D0220281A022028000020CB
:103D0000E00400202DE9F041B4B006460F46154608
:103D10001C4605F109001FFA80F802A823462A462E
:103D200039460090304601F08DF9A02C05D142466D
:103D300002A9084800F04EFB0AE0A52C05D1424636
:103D400002A9054800F046FB02E034B0BDE8F0816E
:103D500000BFFAE74C2B02200026022070B5044673
:103D60004FF4077094FBF0F0C6B24FF4077094FB69
:103D7000F0F100FB114085B205E04FF4077000F050
:103D800009F8701EC6B2002EF7D115B1284600F012
:103D900001F870BD0146114A12884A434FF0E023F2
:103DA0005A6100229A611A46126942F001021A61B0
:103DB00000BF4FF0E022106900F001021AB100F4D8
:103DC0008032002AF5D04FF0E022126922F0010281
:103DD0004FF0E0231A6100229A617047DA00002058
:103DE0000D2018E04FF4FA72154901EB00118A8199
:103DF0000022134901EB00114A60114901EB001147
:103E00008A600F4901EB00110A7000210C4A183A30
:103E10001154411CC8B21728E4DD4FF4FA61084878
:103E20001838A0F894110021C0F88C11C0F8901136
:103E300080F88811002002491839C87570470000C1
:103E40005C1B02208CB0002500F050FF019017E1B0
:103E500000F006FF8B48D0F898018A49D1F89C11F0
:103E6000084389490860084600688849096888420B
:103E70007ED08548006885490968484084490860C3
:103E800081480068834908600024E6E080480078A3
:103E900000F0010000286CD07E480068E04000F08F
:103EA000010000286BD001217648183000EB041087
:103EB00001702646E01704EB5070C010421C2346E8
:103EC00075A102A8FEF7FCFF04EB8400774901EB23
:103ED000C00014300090E01704EB5070C010421C7A
:103EE000234673A102A8FEF7EBFF02AD00261CE0FB
:103EF00015F8010B734908804FF4FA707249086095
:103F000000BF7048001F008800F0400038B16E48C4
:103F100001680068401E6C4A10600029F1D14FF61C
:103F2000BF706849091F0880761C02A8FCF7DAF9FF
:103F3000B042DDD200201FE0FF21624A11804FF421
:103F4000FA71614A116000BF5E49091F098801F0DA
:103F5000400139B15C490A680968491E5A4B196029
:103F6000002AF1D14FF6BF71564A121F118002E0AC
:103F700076E06BE003E0401C0328DDDB6BE0002112
:103F80004048183000EB041001702646E01704EB9F
:103F90005070C010421C23464CA102A8FEF790FFAF
:103FA00004EB8400414901EBC0000090E01704EBF2
:103FB0005070C010421C23463DA102A8FEF780FFAE
:103FC00002AD00261CE015F8010B3E4908804FF4B5
:103FD000FA703D49086000BF3A48001F008800F0B1
:103FE000400038B1384801680068401E364A106009
:103FF0000029F1D14FF6BF703249091F0880761CA5
:1040000002A8FCF76FF9B042DDD200201BE0FF21CF
:104010002C4A11804FF4FA712B4A116000BF2949D4
:10402000091F098801F0400139B127490A68096868
:10403000491E254B1960002AF1D14FF6BF71214A64
:10404000121F1180401C0328E1DB04E010480068C7
:1040500040080F490860601CC4B2172C7FF716AFE8
:104060002048FDF77BFD09480749096801600020E9
:1040700003F0BAF91C490860322101A803F018FBCB
:10408000E6E60000441B0220EC000020F0000020C7
:10409000B4040020B80400207061676525642E74A4
:1040A00025642E70636F3D5245440000F4000020EB
:1040B0007061676525642E7425642E7478743D22C2
:1040C00025732200047C0040BC04002070616765F9
:1040D00025642E7425642E70636F3D475245454E0E
:1040E00000000000341B0220E80000202DE9FC4104
:1040F00004460F46E6686A4601A9206800F034FAD3
:104100007FB99DF8040030B12089BDF80010C1EBE3
:104110004000E08206E02089BDF80010401AE082ED
:1041200000E000BFE08AA18A884231DAA18A2089B2
:10413000C1EB4000E18A084426490860A18A208931
:10414000C1EB400005B2A28A91192A46606800F0CE
:1041500041F9A84203D001201F49086002E0002075
:104160001D4908600020A082E08A05B2A28A911948
:104170002A46606800F02EF9A84203D001201649B3
:10418000086002E0002014490860E08AA0821FE075
:10419000E08AA18A401A0F490860E08AA18A401A81
:1041A00005B2A28A91192A46606800F013F9A84264
:1041B00003D001200849086002E000200649086099
:1041C000E08A2189490090FBF1F201FB1200A082F4
:1041D000BDE8FC817C05002080050020028842802B
:1041E0000A7BCB7A42EA0322028002884388D21AF1
:1041F000B2F5805F09DD8268521E826002884388C2
:10420000D21AA2F50052C26113E002884388D21A82
:1042100012F5805F09DA8268521C82600288438846
:10422000D21A02F50052C26103E002884388D21A12
:10423000C2610388826803EB4232838AD21AC26069
:10424000174A904205D02032904202D0203290424C
:104250000CD190ED030AB8EEC00ADFED120A80EE31
:10426000201ABDEEC10A80ED040A0BE090ED030AAE
:10427000B8EEC00ADFED0C0A80EE201ABDEEC10ACE
:1042800080ED040A8B7B4A7B43EA022212B28280D1
:104290000B7CCA7B43EA022212B2C2807047000044
:1042A000C81A0220CDCC4C44832DD84310B5044607
:1042B000FDF740FB024901EB0411486010BD00000E
:1042C0005C1B022070B50446002500BF00BF002C17
:1042D000FDD000BF00BF00235A1E1946A06903F09D
:1042E00063FD00BF217D481C20752068455C207D52
:1042F000E168B0FBF1F201FB12002075A068401CE0
:10430000A0602069401E206100BF00231A461946A4
:10431000A06903F077FE00BF284670BD2DE9F0418B
:1043200004460D461646002700BF00BF002CFDD0F6
:1043300000BF00BF00235A1E1946A06903F034FDD8
:1043400000BF002015E0227D511C21752168895C89
:104350002954217DE268B1FBF2F302FB13112175B0
:10436000A168491CA1602169491E2161791CCFB255
:10437000401CB04202DA21690029E4D100BF0023C9
:104380001A461946A06903F03DFE00BF3846BDE855
:10439000F08110B5044600BF00BF002CFDD000BF67
:1043A00000BF00BF0029FDD000BF00BF00BF002A32
:1043B000FDD000BFA36153B121608818401E60602A
:1043C000E260A260002020612075607510BD4FF092
:1043D000FF30FBE72DE9F04104460D461646002765
:1043E00000BF00BF002CFDD000BF1DB94FF0FF3053
:1043F000BDE8F08100BF00235A1E1946A06903F0F2
:10440000D3FC00BF002014E02A5C637D591C617559
:104410002168CA54617DE268B1FBF2F302FB13111B
:104420006175A168491EA1602169491C21617F1C39
:10443000401CB04202D2A1680029E5D100BF002390
:104440001A461946A06903F0DDFD00BF3846CFE7E4
:10445000014600BF00BF0029FDD000BF08697047BA
:10446000002010E0094901EB40118A88084921F831
:104470001020064901EB40110A690549143141F841
:104480002020411CC8B20328ECDB7047281A022008
:10449000F01C022010B501F03DFC00F0CDFA1548EB
:1044A000407804280BD11448C078022803D1042096
:1044B000124908700DE003201049087009E00E4809
:1044C000C078022802D10D49087002E001200B4992
:1044D00008700A4800780A490978884205D10948D5
:1044E000007809490978884202D00320074988707A
:1044F00010BD000070050020E41C0220CA0400204A
:10450000CB040020C8040020C9040020841D022020
:1045100030B5034613B94FF6FF7030BD09E013F80C
:10452000014B82EA0400C0B2054D35F8100080EA64
:104530002222081EA1F10101F1D11046EDE7000091
:104540006E8C000830B5034605E013F8010B80EAD5
:1045500002040448025D081EA1F10105A9B2F4D1CC
:10456000104630BD6D8B000870B506460C461546EA
:104570003046FCF76CFE20703046FCF764FE288065
:1045800070BD00000348007A034908700148407A72
:1045900048707047500902206C05002070470000E9
:1045A00008480078084908700848007808490870E9
:1045B00008480078084908700848007808490870D9
:1045C00070470000C8040020C9040020CA0400206D
:1045D000CB040020CC040020CD040020CE04002019
:1045E000CF04002010B50A480078032804D004281E
:1045F00005D0052809D105E0FFF74CFF06E000F0E3
:104600007DF803E000F080F800E000BF00BF10BDBF
:10461000C80400200A7BCB7A42EA03220280028887
:104620008282704770B504460D462078052846D230
:10463000DFE800F0030A1124410015B101202070C9
:1046400001E0002020703BE015B10220207001E065
:104650000020207034E075B1032020701948844296
:1046600004D1FDF767F91749488006E0FDF762F9C4
:104670001449888001E00020207021E0C5B1114874
:1046800084420AD1FDF756F90E494988401AB0F51F
:10469000FA7F0FD9042020700CE0FDF74BF909498F
:1046A0008988401AB0F5FA7F04D90420207001E00F
:1046B0000020207004E00DB90020207000E000BF51
:1046C00000BF70BD70050020002010E0094901EB1B
:1046D00040118A88084921F81020064901EB401151
:1046E0000A690549123141F82020411CC8B203284B
:1046F000ECDB7047C81A02204E1D022010B501F0F5
:1047000049FB00F0FDF910BD10B501F057FB00F0BA
:104710000DFA0848007808490978884205D1074809
:10472000007807490978884202D00320054988703B
:1047300010BD0000CE040020CF040020C8040020DB
:10474000C9040020841D022010B502F097FEFFF777
:1047500025FF02F0BDFE10BD002010E0094901EB6D
:1047600040118A88084921F81020064901EB4011C0
:104770000A6905490C3141F82020411CC8B20228C1
:10478000ECDB7047881A02208C1D022000BFEFF37B
:10479000058008B1012070470020FCE708B53BE028
:1047A0004FF0FF336A464FF48051002003F0F0FFD2
:1047B0000446012C30D1009800F4805060B302F020
:1047C0005DFEFFF74DFEFFF77FFFFFF7C5FFFFF729
:1047D000D9FE02F07DFE0023012211020F4800687D
:1047E00003F0EEFD0023012251020D48006803F0A2
:1047F000E7FD0023012291020A48006803F0E0FD72
:104800000023012291020848006803F0D9FD00202E
:1048100002F0EAFD05490860C2E700001800002028
:10482000200000201C00002024000020C0040020E4
:1048300008B51AE04FF0FF336A460221002003F06A
:10484000A7FF0446012C0BD1009800F0020038B1FC
:1048500000210648FFF74AFCA521054802F0CEFAE0
:10486000002002F0C1FD03490860E3E75022022066
:1048700068220220D404002008B500F037FA009026
:1048800011E0094800F017F800F014F8A5210748D6
:1048900001F044FD002002F0A7FD054908606421F5
:1048A000684602F005FFECE788250220002602207A
:1048B000D0040020704770472DE9F041044625469A
:1048C0002068286020792871B5F80160B4F8057077
:1048D00004F10708052F3AD008DC012F10D0022F71
:1048E00014D0032F19D0042F54D129E0062F35D02E
:1048F000072F3AD0082F3FD0B7F5817F4AD142E049
:10490000324641462548FBF7C9FC44E03246414661
:1049100022480830FBF7C2FC3DE02048806B00EEE7
:10492000100AF7EE000A30EE600A10EE100A1B497A
:1049300088633246414619480930FBF7AFFC2AE04C
:104940003246414615480F30FBF7A8FC23E03246BB
:10495000414612482330FBF7A1FC1CE03246414699
:104960000E482530FBF79AFC15E0324641460B48CD
:104970002630FBF793FC0EE03246414607482830CC
:10498000FBF78CFC07E03246414604484530FBF714
:1049900085FC00E000BF00BFBDE8F081E8210220F7
:1049A00010B5012003F0C2F91149086008464FF420
:1049B000FA72104903681048FFF7EBFC0F481049E2
:1049C00008600D4848604FF4FA7008810D48C860CF
:1049D00000F58060086108480B49086001F10A0091
:1049E00048600020A1F8D400088181F8D20010BDF1
:1049F000880500205C23022040230220286002401A
:104A000050220220D20902206822022010B5012083
:104A100003F08CF90549086008464FF4FA7204491E
:104A200003680448FFF7B5FC10BD000090050020A6
:104A30001C2602200026022010B51C48807998B35D
:104A40001B4A127DC2F34012194B1B7DC3F3801326
:104A500002EA0301164A127DC2F3001232B1144A6F
:104A6000127DC2F380120AB1012200E0002210463A
:104A7000FEF7B8FF0D4A1278042A01D1012200E0A6
:104A800000221146094A1278032A01D1012200E0CE
:104A900000221046FEF7B4FE0548407DC0F34010EA
:104AA00010B100200349487010BD000070050020BF
:104AB00050090220841D022010B50F48007A0328F7
:104AC00007D10D48407A022803D001200B49887194
:104AD00002E00020094988710848807950B10648F1
:104AE000817C0648FFF79EFD0348C17C0348401CBB
:104AF000FFF798FD10BD000050090220700500204E
:104B000010B50848807960B1074A127DC2F30012DF
:104B1000054B1B7D02EAD311034A127DD00901F037
:104B200081F910BD700500205009022010B517480A
:104B3000807948B3164B1B7DC3F3401333B1144B3C
:104B40005B7DC3F340030BB1012300E00023194652
:104B50000F4B1B7DC3F300130D4C647DC4F3400465
:104B600003EA0400094B1B78042B01D1012300E068
:104B700000231A4602F0D0F80548407DC0F34010EB
:104B800010B100200349487010BD000070050020DE
:104B900050090220841D022008B5B420FDF7F0FA68
:104BA0004FF44070FCF742FF42F227310920FDF735
:104BB000BDFBFCF7DFFC592144F61F60FDF758FBF5
:104BC000052004230222002100900846FBF704FE82
:104BD000052004230222032100900020FBF79AFE07
:104BE000FDF7F4FCFDF710FEFDF700FFFDF786FC76
:104BF000FDF734F8FFF7F4F8FEF700FF01F02AFAAA
:104C000002F0B6F8FFF7CCFEFFF700FF00F00CF95A
:104C100000F070F9FDF706FB02F0E0FE00BFFEE7D2
:104C200008B500F063F8009015E0FFF7B9FCFFF756
:104C300043FFFFF7D7FC0023012211030648006859
:104C400003F0BEFB002002F0CFFB04490860022104
:104C5000684602F02DFDE8E730000020C404002083
:104C600010B50D243DE0FCF765FE1F4901EB041172
:104C70004968411A1C4800EB041081601A4800EB97
:104C800004108168184800EB04108089814212D911
:104C90001548183804550121183000EB0410017034
:104CA00011481838D0F89801A14008430E49183926
:104CB000C1F8980113E000200B491839085500216C
:104CC000094800EB0410017007481838D0F8980123
:104CD0000121A140884304491839C1F89801601C9A
:104CE000C4B2172CBFDD10BD5C1B022010B5FFF74E
:104CF0004DFD10B103F09EFC10BD03F095FCFBE7E9
:104D00002DE9F04104462546206828602079287165
:104D1000B5F80160B4F8057004F107083A48006876
:104D2000401C3949086008460068642817DCE878A8
:104D300036490968401A401E35490860084600682F
:104D4000002804DA0846006800F5807008603148E1
:104D500000682F49096808442E49086008E02D487A
:104D600000682D49086000202A490860264908602B
:104D70002748006818B101202849086002E0002097
:104D800026490860E8782149086002F077FBA7F11E
:104D9000A000062832D2DFE800F003091017232A0A
:104DA000324641461E48FBF779FA27E03246414633
:104DB0001B480D30FBF772FA20E032464146184896
:104DC0001B30FBF76BFA19E032464146144820309D
:104DD000FBF764FA124890F82000124908600DE0D1
:104DE000324641460E482130FBF758FA06E032467B
:104DF00041460B482D30FBF751FA00BF00BF02F0CF
:104E000067FBBDE8F0810000D0050020C40500204C
:104E1000C8050020D4050020CC050020D8050020BE
:104E20001C2B0220F405002010B5012002F07EFFAB
:104E30001149086008464FF4FA7210490368104897
:104E4000FFF7A7FA0F48104908600D4848604FF473
:104E5000FA7008810D48C86000F580600861084854
:104E60000B49086001F10A0048600020A1F8D40055
:104E7000088181F8D20010BDC00500202829022039
:104E80000C290220286402401C280220D211022092
:104E90003428022008B51AE04FF0FF336A46082193
:104EA000002003F075FC0446012C0BD1009800F0A3
:104EB000080038B100210648FFF718F9A02105487D
:104EC00001F09CFF002002F08FFA03490860E3E73D
:104ED0001C28022034280220DC04002010B5FFF733
:104EE00033FCA0230E2202491820FEF70BFF10BD51
:104EF0007A2D022010B5012002F018FF0549086044
:104F000008464FF4FA72044903680448FFF741FA6F
:104F100010BD0000F8050020682B02204C2B022059
:104F200008B5FFF7E3FE00900EE0FFF7D7FFA021E2
:104F3000064801F0F3F9002002F056FA044908602F
:104F40001421684602F0B4FBEFE700004C2B02206E
:104F5000D804002010B52DED028B0446B0EE408A37
:104F6000F0EE608A84ED018AC4ED008A38EEC80A4A
:104F700084ED020A94ED050AD4ED020A20EE200A1F
:104F800084ED080A94ED090AD4ED060A94ED021A9C
:104F900000EE810A84ED090A94ED020AD4ED030AB9
:104FA00030EE600AD4ED070A20EE200A84ED0A0AEA
:104FB00004F12400616BFEF792F894ED080AD4ED39
:104FC000090A30EE200AD4ED0A0A30EE200A84EDF8
:104FD0000B0A04F12C00216BFEF781F894ED030A13
:104FE00084ED040A94ED020A84ED030A94ED0B0AA1
:104FF000BDEC028B10BD80ED050AC0ED060A80ED08
:10500000071A01634263F1EE041AC0ED0E1A7047ED
:1050100080ED050AC0ED060A80ED071ADFED081ADB
:10502000C0ED081ADFED061AC0ED091ADFED041A0B
:10503000C0ED0A1ADFED021AC0ED0B1A704700002E
:10504000000000002DE9FF47884616461F460C9CCD
:1050500006F109001FFA80F925462F70A5F80160B6
:10506000A02F0ED1124801780078401C104A107011
:10507000FF2902DB0020114608700D480078E87017
:1050800001E00020E870BDF80000A4F8050005214B
:105090002046FEF761F832464146E01DFBF7FEF878
:1050A00049462046FEF740F8204604B0BDE8F087A8
:1050B000840500202DE9F04105460E461C4807688E
:1050C0001C480068001D02F07BF950B919480068BF
:1050D00090F82C1001208840174909688143164830
:1050E0000160681C38B936B112480168091D1348BF
:1050F00002F0B8F91AE07C190E4800684460BC421E
:1051000007D20C480168091D0D48006802F090F9AB
:105110000CE008480168091D0A48006802F088F997
:1051200009480068844201D207480460BDE8F08164
:10513000700000205C000020740000201409002092
:1051400064000020600000208C00002010B50446A0
:1051500002F094F924480068401C23490860234861
:10516000006840B9214804600846006801280DD154
:1051700000F0EEF90AE01E48006838B91B480068E4
:10518000C06AE16A884201D818480460194800687A
:10519000401C1849086008460068606494F82C10A8
:1051A0000120884014490968084313490860E16AEE
:1051B00001EB8101114A02EB8100211D02F052F93D
:1051C00002F086F90A48006868B108480068C06AB9
:1051D000E16A884207D24FF0805009490860BFF366
:1051E0004F8FBFF36F8F10BD6C0000205C0000205C
:1051F0007800002088000020740000204406002071
:1052000004ED00E010B502F039F910480068D0B99B
:105210000F4802F0FDF80F4802F0FAF80C480E496A
:1052200008600C480D49086000220C210A2002F099
:105230008EFD064908600846006820B108A10348B1
:10524000006802F0F9F902F043F910BDA80000204F
:10525000280900203C090020A0000020A400002014
:10526000546D72510000000070B523E002F004FCA0
:105270001348006808B9012000E00020054603F04B
:1052800087FBBDB902F0FAF80D48C068C468201D5C
:1052900002F096F80B480068401E0A4908600A4868
:1052A0000068401E0849086002F012F9204600F02C
:1052B00060F800BF044800680028D7D170BD000026
:1052C000000900206C0000206800002070B5044632
:1052D0000D46206C70B1216CE0680844E0606168A4
:1052E000E068884201D32068E0602846226CE168CB
:1052F000FAF7D4FF70BD2DE9F04104460F4615467C
:105300004FF00008A66B206C40B9206860BB606855
:1053100003F08EFA80460020606025E07DB93946B2
:10532000226CA068FAF7BAFF216CA0680844A0605C
:10533000D4E90110884217D32068A06014E03946F0
:10534000226CE068FAF7AAFF216CE068401AE0607E
:105350002168E068884203D2216C6068401AE060EE
:10536000022D01D106B1761E701CA0634046BDE837
:10537000F08110B50446206B02F0C8F8204602F018
:10538000C5F810BD0146084A126812680AB9012220
:1053900000E000220A600A6822B9034A1268D26853
:1053A000106800E000207047A000002030B54FF4E6
:1053B0000033174800F007042CB1C01D20F007008F
:1053C000134C041B1B1B0246124C22600024114D7F
:1053D0006C60D018083820F007000F4C20600024C3
:1053E0000D4D2D686C600C4D2D682C601146441AD3
:1053F0004C60094C24680C60084D4C682C60084DCA
:105400004C682C604FF00044064D2C6030BD00000D
:1054100050090020B4000020BC000020C40000207F
:10542000C0000020C800002000BFFFF71DFF064895
:1054300000680128F9D94FF0805004490860BFF393
:105440004F8FBFF36F8FF0E74406002004ED00E0BC
:1054500010B504464CB1002060602060E06000237D
:105460001A461946204602F0CDFD10BD2DE9F04147
:1054700006460D4617469846069C0DB9246000E086
:105480002760E66325640121204602F06FFD84F861
:1054900050800020A064BDE8F0812DE9F05F8246D5
:1054A0000F4690469B460A9E0C9C4FEA8801A52217
:1054B000206BFAF705FFA8F10100216B01EB8009D1
:1054C00029F0070909F0070008B9012000E00020D1
:1054D00050B900BF502080F31188BFF34F8FBFF346
:1054E0006F8F00BF00BFFEE7002507E0795D04F184
:1054F00034004155785D00B902E06D1C102DF5D3E4
:1055000000BF002143200155202E00D31F26E66254
:10551000E66400202065201D01F087FF04F11800DB
:1055200001F083FF2461C6F12000A06164620020C5
:105530006065A06584F85C005A465146484600F014
:1055400097FB20600B9808B10B980460BDE8F09FB2
:1055500010B5002407E004EB84010F4A02EB810040
:1055600001F056FF641C202CF5D30C4801F050FFCD
:105570000B4801F04DFF0B4801F04AFF0A4801F0CB
:1055800047FF0A4801F044FF0448094908600448FD
:105590000849086010BD000044060020C40800202F
:1055A000D8080020EC080020000900201409002081
:1055B000600000206400002010B50146164800E09D
:1055C000006803688B42FBD30246436813448B4256
:1055D00004D143684C682344436001460A464B6843
:1055E00013440468A34211D10C4C03682468A342FD
:1055F00008D04B680468646823444B6003681B68E8
:105600000B6005E0054B1B680B6001E003680B6055
:10561000884200D0016010BDB4000020BC00002012
:105620002DE9F04104460D4616461F464FF000088E
:1056300065602461B5420CD8F01BA169884202D391
:105640004FF0010811E0211D0948006801F0F0FE4B
:105650000BE0BE4204D2BD4202D34FF0010804E089
:10566000211D0448006801F0E3FE4046BDE8F081DA
:10567000A4000020A000002070B5054601F0FEFE49
:10568000A86B08B9012400E0002401F021FF2046A6
:1056900070BD70B5054601F0F1FEA86BE96B88425C
:1056A00001D1012400E0002401F012FF204670BD6A
:1056B0002DE9F3410D460098846C002754B900BFD2
:1056C000502080F31188BFF34F8FBFF36F8F00BF5F
:1056D00000BFFEE7A06BE16B884201D2012000E031
:1056E000002050B900BF502080F31188BFF34F8FC6
:1056F000BFF36F8F00BF00BFFEE7A06BE16B884276
:105700001BD294F945602A4669462046FFF7F3FD0F
:105710000746701C60B9606A08B9012000E00020EB
:1057200050B904F1240003F0E7F828B1012703E0A1
:10573000701C40B284F8450000BF3846BDE8FC81CB
:10574000F8B505460F4616480068C068C468201DB5
:1057500001F036FEE06901281DD1A06941192B46F0
:105760003A462046FFF75CFFA8B1002003462A46D0
:1057700001460090204603F0B7F9064656B900BF2F
:10578000502080F31188BFF34F8FBFF36F8F00BF9E
:1057900000BFFEE700BF2046616A8847F8BD0000F1
:1057A000A000002070B586B06AE00398002867DB8F
:1057B000059C606908B9012000E0002010B9201D97
:1057C00001F0FEFD02A800F0BDF8054603980A2886
:1057D00054D2DFE800F009050731334F06083234B0
:1057E00000BF00BF00BF00BF0498A2698118034634
:1057F0002A462046FFF714FFE8B12046616A884731
:10580000E069012817D1002000900498A16942188E
:1058100000231946204603F067F9064656B900BF33
:10582000502080F31188BFF34F8FBFF36F8F00BFFD
:1058300000BFFEE700BF22E000BF20E000BF0498E9
:10584000A061A06908B1012000E0002050B900BFAC
:10585000502080F31188BFF34F8FBFF36F8F00BFCD
:1058600000BFFEE7A06941192B462A462046FFF7F4
:10587000D7FE04E0204601F049FE00E000BF00BF73
:1058800000231A4603A90448006802F08DFA002894
:105890008BD106B070BD0000A8000020F8B5054609
:1058A0000C4602F0E9F8684600F04CF8064600980D
:1058B00020BB44B9B54206D803F06AF83146284601
:1058C000FFF73EFF1CE03CB10E480068006808B9D5
:1058D000012000E000200446A91B22460A48006877
:1058E00001F0C0FE03F054F850B94FF08050074962
:1058F0000860BFF34F8FBFF36F8F01E003F048F8EC
:10590000F8BD0000A4000020A800002004ED00E085
:105910000A490968096809B9012100E0002121B19B
:105920004FF0FF31064A116006E004490968C96872
:10593000C868034A41681160704700006000002099
:105940008C00002070B5044602F06EFE0546074844
:105950000068854204D200F00BF80120206001E0CD
:105960000020206001480560284670BDB00000207E
:105970002DE9F84332E024480068C06805682248F1
:105980000068C068C468201D01F01AFD2046616AE5
:105990008847E069012821D1A0694619AE4207D99C
:1059A00066602461211D1848006801F041FD15E082
:1059B000002003462A4601460090204603F094F852
:1059C000074657B900BF502080F31188BFF34F8FAF
:1059D000BFF36F8F00BF00BFFEE700BF0A4800683B
:1059E000006808B9012000E000200028C3D0064864
:1059F000D0F8008005480068034908600348C0F8F3
:105A00000080BDE8F8830000A0000020A400002072
:105A10000246002101E0521C491C1078A528FAD04A
:105A2000890888B2704700000E480068401C08B919
:105A3000012000E0002050B900BF502080F3118801
:105A4000BFF34F8FBFF36F8F00BF00BFFEE700BFF4
:105A5000502080F31188BFF34F8FBFF36F8F00BFCB
:105A600000BFFEE7CC00002008B500BF6846FFF786
:105A700089FC044620460099FFF710FFFFF792FECD
:105A8000F4E770B5044601F0F9FC94F945501AE0CA
:105A9000A06C38B100212046FFF70AFE88B101F062
:105AA000EBFE0EE0606A08B9012000E0002038B982
:105AB00004F1240002F020FF18B101F0DDFE00E047
:105AC00003E0681E45B2002DE2DC00BFFF2084F831
:105AD000450001F0FDFC01F0D1FC94F9445010E0C8
